{
  "_format": "hh-sol-artifact-1",
  "contractName": "WildListNFT",
  "sourceName": "contracts/WildlistMint.sol",
  "abi": [
    {
      "inputs": [
        {
          "internalType": "string",
          "name": "name",
          "type": "string"
        },
        {
          "internalType": "string",
          "name": "symbol",
          "type": "string"
        },
        {
          "internalType": "string",
          "name": "_baseuri",
          "type": "string"
        },
        {
          "internalType": "string",
          "name": "_notRevealedUri",
          "type": "string"
        }
      ],
      "stateMutability": "nonpayable",
      "type": "constructor"
    },
    {
      "inputs": [],
      "name": "ApprovalCallerNotOwnerNorApproved",
      "type": "error"
    },
    {
      "inputs": [],
      "name": "ApprovalQueryForNonexistentToken",
      "type": "error"
    },
    {
      "inputs": [],
      "name": "BalanceQueryForZeroAddress",
      "type": "error"
    },
    {
      "inputs": [],
      "name": "MintERC2309QuantityExceedsLimit",
      "type": "error"
    },
    {
      "inputs": [],
      "name": "MintToZeroAddress",
      "type": "error"
    },
    {
      "inputs": [],
      "name": "MintZeroQuantity",
      "type": "error"
    },
    {
      "inputs": [],
      "name": "OwnerQueryForNonexistentToken",
      "type": "error"
    },
    {
      "inputs": [],
      "name": "OwnershipNotInitializedForExtraData",
      "type": "error"
    },
    {
      "inputs": [],
      "name": "TransferCallerNotOwnerNorApproved",
      "type": "error"
    },
    {
      "inputs": [],
      "name": "TransferFromIncorrectOwner",
      "type": "error"
    },
    {
      "inputs": [],
      "name": "TransferToNonERC721ReceiverImplementer",
      "type": "error"
    },
    {
      "inputs": [],
      "name": "TransferToZeroAddress",
      "type": "error"
    },
    {
      "inputs": [],
      "name": "URIQueryForNonexistentToken",
      "type": "error"
    },
    {
      "anonymous": false,
      "inputs": [
        {
          "indexed": true,
          "internalType": "address",
          "name": "owner",
          "type": "address"
        },
        {
          "indexed": true,
          "internalType": "address",
          "name": "approved",
          "type": "address"
        },
        {
          "indexed": true,
          "internalType": "uint256",
          "name": "tokenId",
          "type": "uint256"
        }
      ],
      "name": "Approval",
      "type": "event"
    },
    {
      "anonymous": false,
      "inputs": [
        {
          "indexed": true,
          "internalType": "address",
          "name": "owner",
          "type": "address"
        },
        {
          "indexed": true,
          "internalType": "address",
          "name": "operator",
          "type": "address"
        },
        {
          "indexed": false,
          "internalType": "bool",
          "name": "approved",
          "type": "bool"
        }
      ],
      "name": "ApprovalForAll",
      "type": "event"
    },
    {
      "anonymous": false,
      "inputs": [
        {
          "indexed": true,
          "internalType": "uint256",
          "name": "fromTokenId",
          "type": "uint256"
        },
        {
          "indexed": false,
          "internalType": "uint256",
          "name": "toTokenId",
          "type": "uint256"
        },
        {
          "indexed": true,
          "internalType": "address",
          "name": "from",
          "type": "address"
        },
        {
          "indexed": true,
          "internalType": "address",
          "name": "to",
          "type": "address"
        }
      ],
      "name": "ConsecutiveTransfer",
      "type": "event"
    },
    {
      "anonymous": false,
      "inputs": [
        {
          "indexed": true,
          "internalType": "address",
          "name": "previousOwner",
          "type": "address"
        },
        {
          "indexed": true,
          "internalType": "address",
          "name": "newOwner",
          "type": "address"
        }
      ],
      "name": "OwnershipTransferred",
      "type": "event"
    },
    {
      "anonymous": false,
      "inputs": [
        {
          "indexed": true,
          "internalType": "address",
          "name": "from",
          "type": "address"
        },
        {
          "indexed": true,
          "internalType": "address",
          "name": "to",
          "type": "address"
        },
        {
          "indexed": true,
          "internalType": "uint256",
          "name": "tokenId",
          "type": "uint256"
        }
      ],
      "name": "Transfer",
      "type": "event"
    },
    {
      "inputs": [
        {
          "internalType": "address[]",
          "name": "_addwhitelist",
          "type": "address[]"
        }
      ],
      "name": "addWhitelist",
      "outputs": [],
      "stateMutability": "nonpayable",
      "type": "function"
    },
    {
      "inputs": [
        {
          "internalType": "address",
          "name": "to",
          "type": "address"
        },
        {
          "internalType": "uint256",
          "name": "tokenId",
          "type": "uint256"
        }
      ],
      "name": "approve",
      "outputs": [],
      "stateMutability": "payable",
      "type": "function"
    },
    {
      "inputs": [
        {
          "internalType": "address",
          "name": "owner",
          "type": "address"
        }
      ],
      "name": "balanceOf",
      "outputs": [
        {
          "internalType": "uint256",
          "name": "",
          "type": "uint256"
        }
      ],
      "stateMutability": "view",
      "type": "function"
    },
    {
      "inputs": [
        {
          "internalType": "uint256",
          "name": "quantity",
          "type": "uint256"
        }
      ],
      "name": "centralizedMint",
      "outputs": [],
      "stateMutability": "payable",
      "type": "function"
    },
    {
      "inputs": [],
      "name": "contractownerAddress",
      "outputs": [
        {
          "internalType": "address payable",
          "name": "",
          "type": "address"
        }
      ],
      "stateMutability": "view",
      "type": "function"
    },
    {
      "inputs": [
        {
          "internalType": "uint256",
          "name": "tokenId",
          "type": "uint256"
        }
      ],
      "name": "getApproved",
      "outputs": [
        {
          "internalType": "address",
          "name": "",
          "type": "address"
        }
      ],
      "stateMutability": "view",
      "type": "function"
    },
    {
      "inputs": [],
      "name": "getBalanceInSC",
      "outputs": [
        {
          "internalType": "uint256",
          "name": "",
          "type": "uint256"
        }
      ],
      "stateMutability": "nonpayable",
      "type": "function"
    },
    {
      "inputs": [],
      "name": "getSaleType",
      "outputs": [
        {
          "internalType": "string",
          "name": "",
          "type": "string"
        }
      ],
      "stateMutability": "nonpayable",
      "type": "function"
    },
    {
      "inputs": [],
      "name": "getTokenMintedCount",
      "outputs": [
        {
          "internalType": "uint256",
          "name": "",
          "type": "uint256"
        }
      ],
      "stateMutability": "nonpayable",
      "type": "function"
    },
    {
      "inputs": [],
      "name": "getWhitelistStatus",
      "outputs": [
        {
          "internalType": "bool",
          "name": "",
          "type": "bool"
        }
      ],
      "stateMutability": "nonpayable",
      "type": "function"
    },
    {
      "inputs": [
        {
          "internalType": "address",
          "name": "owner",
          "type": "address"
        },
        {
          "internalType": "address",
          "name": "operator",
          "type": "address"
        }
      ],
      "name": "isApprovedForAll",
      "outputs": [
        {
          "internalType": "bool",
          "name": "",
          "type": "bool"
        }
      ],
      "stateMutability": "view",
      "type": "function"
    },
    {
      "inputs": [],
      "name": "maxPublicMint",
      "outputs": [
        {
          "internalType": "uint256",
          "name": "",
          "type": "uint256"
        }
      ],
      "stateMutability": "view",
      "type": "function"
    },
    {
      "inputs": [],
      "name": "maxSupply",
      "outputs": [
        {
          "internalType": "uint256",
          "name": "",
          "type": "uint256"
        }
      ],
      "stateMutability": "view",
      "type": "function"
    },
    {
      "inputs": [],
      "name": "maxWhiteListMint",
      "outputs": [
        {
          "internalType": "uint256",
          "name": "",
          "type": "uint256"
        }
      ],
      "stateMutability": "view",
      "type": "function"
    },
    {
      "inputs": [
        {
          "internalType": "address",
          "name": "",
          "type": "address"
        }
      ],
      "name": "mintDetails",
      "outputs": [
        {
          "internalType": "uint256",
          "name": "tokenMinted",
          "type": "uint256"
        },
        {
          "internalType": "bool",
          "name": "WhiteListStatus",
          "type": "bool"
        }
      ],
      "stateMutability": "view",
      "type": "function"
    },
    {
      "inputs": [],
      "name": "mintStatus",
      "outputs": [
        {
          "internalType": "bool",
          "name": "",
          "type": "bool"
        }
      ],
      "stateMutability": "view",
      "type": "function"
    },
    {
      "inputs": [],
      "name": "name",
      "outputs": [
        {
          "internalType": "string",
          "name": "",
          "type": "string"
        }
      ],
      "stateMutability": "view",
      "type": "function"
    },
    {
      "inputs": [],
      "name": "owner",
      "outputs": [
        {
          "internalType": "address",
          "name": "",
          "type": "address"
        }
      ],
      "stateMutability": "view",
      "type": "function"
    },
    {
      "inputs": [],
      "name": "ownerAddress",
      "outputs": [
        {
          "internalType": "address",
          "name": "",
          "type": "address"
        }
      ],
      "stateMutability": "view",
      "type": "function"
    },
    {
      "inputs": [
        {
          "internalType": "uint256",
          "name": "tokenId",
          "type": "uint256"
        }
      ],
      "name": "ownerOf",
      "outputs": [
        {
          "internalType": "address",
          "name": "",
          "type": "address"
        }
      ],
      "stateMutability": "view",
      "type": "function"
    },
    {
      "inputs": [
        {
          "internalType": "uint256",
          "name": "quantity",
          "type": "uint256"
        }
      ],
      "name": "publicMint",
      "outputs": [],
      "stateMutability": "payable",
      "type": "function"
    },
    {
      "inputs": [],
      "name": "publicPrice",
      "outputs": [
        {
          "internalType": "uint256",
          "name": "",
          "type": "uint256"
        }
      ],
      "stateMutability": "view",
      "type": "function"
    },
    {
      "inputs": [],
      "name": "renounceOwnership",
      "outputs": [],
      "stateMutability": "nonpayable",
      "type": "function"
    },
    {
      "inputs": [],
      "name": "revealed",
      "outputs": [
        {
          "internalType": "bool",
          "name": "",
          "type": "bool"
        }
      ],
      "stateMutability": "view",
      "type": "function"
    },
    {
      "inputs": [
        {
          "internalType": "address",
          "name": "from",
          "type": "address"
        },
        {
          "internalType": "address",
          "name": "to",
          "type": "address"
        },
        {
          "internalType": "uint256",
          "name": "tokenId",
          "type": "uint256"
        }
      ],
      "name": "safeTransferFrom",
      "outputs": [],
      "stateMutability": "payable",
      "type": "function"
    },
    {
      "inputs": [
        {
          "internalType": "address",
          "name": "from",
          "type": "address"
        },
        {
          "internalType": "address",
          "name": "to",
          "type": "address"
        },
        {
          "internalType": "uint256",
          "name": "tokenId",
          "type": "uint256"
        },
        {
          "internalType": "bytes",
          "name": "_data",
          "type": "bytes"
        }
      ],
      "name": "safeTransferFrom",
      "outputs": [],
      "stateMutability": "payable",
      "type": "function"
    },
    {
      "inputs": [],
      "name": "saleConfig",
      "outputs": [
        {
          "internalType": "enum WildListNFT.SaleConfig",
          "name": "",
          "type": "uint8"
        }
      ],
      "stateMutability": "view",
      "type": "function"
    },
    {
      "inputs": [
        {
          "internalType": "address",
          "name": "operator",
          "type": "address"
        },
        {
          "internalType": "bool",
          "name": "approved",
          "type": "bool"
        }
      ],
      "name": "setApprovalForAll",
      "outputs": [],
      "stateMutability": "nonpayable",
      "type": "function"
    },
    {
      "inputs": [
        {
          "internalType": "string",
          "name": "_baseUri",
          "type": "string"
        }
      ],
      "name": "setBaseUri",
      "outputs": [],
      "stateMutability": "nonpayable",
      "type": "function"
    },
    {
      "inputs": [
        {
          "internalType": "uint256",
          "name": "amount",
          "type": "uint256"
        }
      ],
      "name": "setMaxPublicMint",
      "outputs": [],
      "stateMutability": "nonpayable",
      "type": "function"
    },
    {
      "inputs": [
        {
          "internalType": "uint256",
          "name": "_maxSupply",
          "type": "uint256"
        }
      ],
      "name": "setMaxSupply",
      "outputs": [],
      "stateMutability": "nonpayable",
      "type": "function"
    },
    {
      "inputs": [
        {
          "internalType": "uint256",
          "name": "amount",
          "type": "uint256"
        }
      ],
      "name": "setMaxWhiteListMint",
      "outputs": [],
      "stateMutability": "nonpayable",
      "type": "function"
    },
    {
      "inputs": [
        {
          "internalType": "bool",
          "name": "status",
          "type": "bool"
        }
      ],
      "name": "setMintStatus",
      "outputs": [],
      "stateMutability": "nonpayable",
      "type": "function"
    },
    {
      "inputs": [
        {
          "internalType": "string",
          "name": "_notRevealedUri",
          "type": "string"
        }
      ],
      "name": "setNotRevealedUri",
      "outputs": [],
      "stateMutability": "nonpayable",
      "type": "function"
    },
    {
      "inputs": [
        {
          "internalType": "uint256",
          "name": "_publicPrice",
          "type": "uint256"
        }
      ],
      "name": "setPublicPrice",
      "outputs": [],
      "stateMutability": "nonpayable",
      "type": "function"
    },
    {
      "inputs": [],
      "name": "setPublicSale",
      "outputs": [],
      "stateMutability": "nonpayable",
      "type": "function"
    },
    {
      "inputs": [
        {
          "internalType": "bool",
          "name": "_revealed",
          "type": "bool"
        }
      ],
      "name": "setRevealed",
      "outputs": [],
      "stateMutability": "nonpayable",
      "type": "function"
    },
    {
      "inputs": [
        {
          "internalType": "uint256",
          "name": "_whiteListPrice",
          "type": "uint256"
        }
      ],
      "name": "setWhiteListPrice",
      "outputs": [],
      "stateMutability": "nonpayable",
      "type": "function"
    },
    {
      "inputs": [],
      "name": "setWhiteListSale",
      "outputs": [],
      "stateMutability": "nonpayable",
      "type": "function"
    },
    {
      "inputs": [
        {
          "internalType": "bytes4",
          "name": "interfaceId",
          "type": "bytes4"
        }
      ],
      "name": "supportsInterface",
      "outputs": [
        {
          "internalType": "bool",
          "name": "",
          "type": "bool"
        }
      ],
      "stateMutability": "view",
      "type": "function"
    },
    {
      "inputs": [],
      "name": "symbol",
      "outputs": [
        {
          "internalType": "string",
          "name": "",
          "type": "string"
        }
      ],
      "stateMutability": "view",
      "type": "function"
    },
    {
      "inputs": [
        {
          "internalType": "uint256",
          "name": "tokenId",
          "type": "uint256"
        }
      ],
      "name": "tokenURI",
      "outputs": [
        {
          "internalType": "string",
          "name": "",
          "type": "string"
        }
      ],
      "stateMutability": "view",
      "type": "function"
    },
    {
      "inputs": [],
      "name": "totalSupply",
      "outputs": [
        {
          "internalType": "uint256",
          "name": "",
          "type": "uint256"
        }
      ],
      "stateMutability": "view",
      "type": "function"
    },
    {
      "inputs": [
        {
          "internalType": "address",
          "name": "from",
          "type": "address"
        },
        {
          "internalType": "address",
          "name": "to",
          "type": "address"
        },
        {
          "internalType": "uint256",
          "name": "tokenId",
          "type": "uint256"
        }
      ],
      "name": "transferFrom",
      "outputs": [],
      "stateMutability": "payable",
      "type": "function"
    },
    {
      "inputs": [
        {
          "internalType": "address",
          "name": "newOwner",
          "type": "address"
        }
      ],
      "name": "transferOwnership",
      "outputs": [],
      "stateMutability": "nonpayable",
      "type": "function"
    },
    {
      "inputs": [
        {
          "internalType": "uint256",
          "name": "quantity",
          "type": "uint256"
        }
      ],
      "name": "whiteListMint",
      "outputs": [],
      "stateMutability": "payable",
      "type": "function"
    },
    {
      "inputs": [],
      "name": "whiteListPrice",
      "outputs": [
        {
          "internalType": "uint256",
          "name": "",
          "type": "uint256"
        }
      ],
      "stateMutability": "view",
      "type": "function"
    },
    {
      "inputs": [
        {
          "internalType": "uint256",
          "name": "",
          "type": "uint256"
        }
      ],
      "name": "whitelistAccs",
      "outputs": [
        {
          "internalType": "address",
          "name": "",
          "type": "address"
        }
      ],
      "stateMutability": "view",
      "type": "function"
    },
    {
      "inputs": [],
      "name": "withDraw",
      "outputs": [],
      "stateMutability": "nonpayable",
      "type": "function"
    }
  ],
  "bytecode": "0x60806040526127106009556000600a60006101000a81548160ff02191690836001811115620000335762000032620002e8565b5b02179055506000600a60016101000a81548160ff0219169083151502179055506000600a60026101000a81548160ff0219169083151502179055506040518060400160405280600581526020017f2e6a736f6e000000000000000000000000000000000000000000000000000000815250600d9081620000b4919062000591565b5066c3663566a58000601255600360135567010a741a462780006014556003601555348015620000e357600080fd5b5060405162004aa238038062004aa28339818101604052810190620001099190620007dc565b83836200012b6200011f6200021760201b60201c565b6200021f60201b60201c565b81600390816200013c919062000591565b5080600490816200014e919062000591565b506200015f620002e360201b60201c565b600181905550505081600b908162000178919062000591565b5080600c90816200018a919062000591565b5033600e60006101000a81548173ffffffffffffffffffffffffffffffffffffffff021916908373ffffffffffffffffffffffffffffffffffffffff16021790555033600f60006101000a81548173ffffffffffffffffffffffffffffffffffffffff021916908373ffffffffffffffffffffffffffffffffffffffff16021790555050505050620008ca565b600033905090565b60008060009054906101000a900473ffffffffffffffffffffffffffffffffffffffff169050816000806101000a81548173ffffffffffffffffffffffffffffffffffffffff021916908373ffffffffffffffffffffffffffffffffffffffff1602179055508173ffffffffffffffffffffffffffffffffffffffff168173ffffffffffffffffffffffffffffffffffffffff167f8be0079c531659141344cd1fd0a4f28419497f9722a3daafe3b4186f6b6457e060405160405180910390a35050565b600090565b7f4e487b7100000000000000000000000000000000000000000000000000000000600052602160045260246000fd5b600081519050919050565b7f4e487b7100000000000000000000000000000000000000000000000000000000600052604160045260246000fd5b7f4e487b7100000000000000000000000000000000000000000000000000000000600052602260045260246000fd5b600060028204905060018216806200039957607f821691505b602082108103620003af57620003ae62000351565b5b50919050565b60008190508160005260206000209050919050565b60006020601f8301049050919050565b600082821b905092915050565b600060088302620004197fffffffffffffffffffffffffffffffffffffffffffffffffffffffffffffffff82620003da565b620004258683620003da565b95508019841693508086168417925050509392505050565b6000819050919050565b6000819050919050565b6000620004726200046c62000466846200043d565b62000447565b6200043d565b9050919050565b6000819050919050565b6200048e8362000451565b620004a66200049d8262000479565b848454620003e7565b825550505050565b600090565b620004bd620004ae565b620004ca81848462000483565b505050565b5b81811015620004f257620004e6600082620004b3565b600181019050620004d0565b5050565b601f82111562000541576200050b81620003b5565b6200051684620003ca565b8101602085101562000526578190505b6200053e6200053585620003ca565b830182620004cf565b50505b505050565b600082821c905092915050565b6000620005666000198460080262000546565b1980831691505092915050565b600062000581838362000553565b9150826002028217905092915050565b6200059c8262000317565b67ffffffffffffffff811115620005b857620005b762000322565b5b620005c4825462000380565b620005d1828285620004f6565b600060209050601f831160018114620006095760008415620005f4578287015190505b62000600858262000573565b86555062000670565b601f1984166200061986620003b5565b60005b8281101562000643578489015182556001820191506020850194506020810190506200061c565b868310156200066357848901516200065f601f89168262000553565b8355505b6001600288020188555050505b505050505050565b6000604051905090565b600080fd5b600080fd5b600080fd5b600080fd5b6000601f19601f8301169050919050565b620006b28262000696565b810181811067ffffffffffffffff82111715620006d457620006d362000322565b5b80604052505050565b6000620006e962000678565b9050620006f78282620006a7565b919050565b600067ffffffffffffffff8211156200071a576200071962000322565b5b620007258262000696565b9050602081019050919050565b60005b838110156200075257808201518184015260208101905062000735565b60008484015250505050565b6000620007756200076f84620006fc565b620006dd565b90508281526020810184848401111562000794576200079362000691565b5b620007a184828562000732565b509392505050565b600082601f830112620007c157620007c06200068c565b5b8151620007d38482602086016200075e565b91505092915050565b60008060008060808587031215620007f957620007f862000682565b5b600085015167ffffffffffffffff8111156200081a576200081962000687565b5b6200082887828801620007a9565b945050602085015167ffffffffffffffff8111156200084c576200084b62000687565b5b6200085a87828801620007a9565b935050604085015167ffffffffffffffff8111156200087e576200087d62000687565b5b6200088c87828801620007a9565b925050606085015167ffffffffffffffff811115620008b057620008af62000687565b5b620008be87828801620007a9565b91505092959194509250565b6141c880620008da6000396000f3fe6080604052600436106102ae5760003560e01c80638da5cb5b11610175578063beafc89b116100dc578063d5abeb0111610095578063e985e9c51161006f578063e985e9c5146109f4578063ec49b63314610a31578063edac985b14610a5c578063f2fde38b14610a85576102ae565b8063d5abeb0114610963578063de62dbaf1461098e578063e0a80853146109cb576102ae565b8063beafc89b14610855578063c17ecd121461087e578063c6275255146108a7578063c87b56dd146108d0578063cabadaa01461090d578063d1e812a314610938576102ae565b8063a0bda4001161012e578063a0bda40014610760578063a22cb4651461078b578063a808befe146107b4578063a945bf80146107d0578063b88d4fde146107fb578063bbea7eef14610817576102ae565b80638da5cb5b146106605780638f84aa091461068b57806390aa0b0f146106b657806395d89b41146106e15780639da3f8fd1461070c578063a0bcfc7f14610737576102ae565b8063334cafb0116102195780636c88475d116101d25780636c88475d146105785780636d8ee32b1461058f5780636f8b44b0146105b857806370a08231146105e1578063715018a61461061e5780637a0767d014610635576102ae565b8063334cafb01461048757806342842e0e146104b257806351830227146104ce57806356f8f78c146104f95780636352211e14610510578063685756851461054d576102ae565b806318160ddd1161026b57806318160ddd146103a75780631f85e3ca146103d257806323b872dd146103fb57806325d0e81114610417578063270ab52c146104425780632db115441461046b576102ae565b806301ffc9a7146102b357806302e001ef146102f057806306fdde031461030c578063081812fc14610337578063095ea7b3146103745780630fdb1c1014610390575b600080fd5b3480156102bf57600080fd5b506102da60048036038101906102d59190612e2e565b610aae565b6040516102e79190612e76565b60405180910390f35b61030a60048036038101906103059190612ec7565b610b40565b005b34801561031857600080fd5b50610321610f03565b60405161032e9190612f84565b60405180910390f35b34801561034357600080fd5b5061035e60048036038101906103599190612ec7565b610f95565b60405161036b9190612fe7565b60405180910390f35b61038e6004803603810190610389919061302e565b611014565b005b34801561039c57600080fd5b506103a5611158565b005b3480156103b357600080fd5b506103bc6111a9565b6040516103c9919061307d565b60405180910390f35b3480156103de57600080fd5b506103f960048036038101906103f491906130c4565b6111c0565b005b610415600480360381019061041091906130f1565b6111e5565b005b34801561042357600080fd5b5061042c611507565b604051610439919061307d565b60405180910390f35b34801561044e57600080fd5b5061046960048036038101906104649190612ec7565b611556565b005b61048560048036038101906104809190612ec7565b611568565b005b34801561049357600080fd5b5061049c61188e565b6040516104a9919061307d565b60405180910390f35b6104cc60048036038101906104c791906130f1565b611894565b005b3480156104da57600080fd5b506104e36118b4565b6040516104f09190612e76565b60405180910390f35b34801561050557600080fd5b5061050e6118c7565b005b34801561051c57600080fd5b5061053760048036038101906105329190612ec7565b6118fc565b6040516105449190612fe7565b60405180910390f35b34801561055957600080fd5b5061056261190e565b60405161056f919061307d565b60405180910390f35b34801561058457600080fd5b5061058d611914565b005b34801561059b57600080fd5b506105b660048036038101906105b19190612ec7565b611949565b005b3480156105c457600080fd5b506105df60048036038101906105da9190612ec7565b61195b565b005b3480156105ed57600080fd5b5061060860048036038101906106039190613144565b61196d565b604051610615919061307d565b60405180910390f35b34801561062a57600080fd5b50610633611a25565b005b34801561064157600080fd5b5061064a611a39565b6040516106579190612e76565b60405180910390f35b34801561066c57600080fd5b50610675611a95565b6040516106829190612fe7565b60405180910390f35b34801561069757600080fd5b506106a0611abe565b6040516106ad9190612fe7565b60405180910390f35b3480156106c257600080fd5b506106cb611ae4565b6040516106d891906131e8565b60405180910390f35b3480156106ed57600080fd5b506106f6611af7565b6040516107039190612f84565b60405180910390f35b34801561071857600080fd5b50610721611b89565b60405161072e9190612e76565b60405180910390f35b34801561074357600080fd5b5061075e60048036038101906107599190613338565b611b9c565b005b34801561076c57600080fd5b50610775611bb7565b604051610782919061307d565b60405180910390f35b34801561079757600080fd5b506107b260048036038101906107ad9190613381565b611bc7565b005b6107ce60048036038101906107c99190612ec7565b611cd2565b005b3480156107dc57600080fd5b506107e5611f14565b6040516107f2919061307d565b60405180910390f35b61081560048036038101906108109190613462565b611f1a565b005b34801561082357600080fd5b5061083e60048036038101906108399190613144565b611f8d565b60405161084c9291906134e5565b60405180910390f35b34801561086157600080fd5b5061087c60048036038101906108779190612ec7565b611fbe565b005b34801561088a57600080fd5b506108a560048036038101906108a09190613338565b611fd0565b005b3480156108b357600080fd5b506108ce60048036038101906108c99190612ec7565b611feb565b005b3480156108dc57600080fd5b506108f760048036038101906108f29190612ec7565b611ffd565b6040516109049190612f84565b60405180910390f35b34801561091957600080fd5b50610922612128565b60405161092f919061307d565b60405180910390f35b34801561094457600080fd5b5061094d61212e565b60405161095a9190612f84565b60405180910390f35b34801561096f57600080fd5b50610978612223565b604051610985919061307d565b60405180910390f35b34801561099a57600080fd5b506109b560048036038101906109b09190612ec7565b612229565b6040516109c29190612fe7565b60405180910390f35b3480156109d757600080fd5b506109f260048036038101906109ed91906130c4565b612268565b005b348015610a0057600080fd5b50610a1b6004803603810190610a16919061350e565b61228d565b604051610a289190612e76565b60405180910390f35b348015610a3d57600080fd5b50610a46612321565b604051610a53919061356f565b60405180910390f35b348015610a6857600080fd5b50610a836004803603810190610a7e9190613652565b612347565b005b348015610a9157600080fd5b50610aac6004803603810190610aa79190613144565b612464565b005b60006301ffc9a760e01b827bffffffffffffffffffffffffffffffffffffffffffffffffffffffff19161480610b0957506380ac58cd60e01b827bffffffffffffffffffffffffffffffffffffffffffffffffffffffff1916145b80610b395750635b5e139f60e01b827bffffffffffffffffffffffffffffffffffffffffffffffffffffffff1916145b9050919050565b3373ffffffffffffffffffffffffffffffffffffffff163273ffffffffffffffffffffffffffffffffffffffff1614610bae576040517f08c379a0000000000000000000000000000000000000000000000000000000008152600401610ba59061370d565b60405180910390fd5b60011515600a60019054906101000a900460ff16151514610c04576040517f08c379a0000000000000000000000000000000000000000000000000000000008152600401610bfb9061379f565b60405180910390fd5b60006001811115610c1857610c17613171565b5b600a60009054906101000a900460ff166001811115610c3a57610c39613171565b5b14610c7a576040517f08c379a0000000000000000000000000000000000000000000000000000000008152600401610c7190613831565b60405180910390fd5b6000601060003373ffffffffffffffffffffffffffffffffffffffff1673ffffffffffffffffffffffffffffffffffffffff16815260200190815260200160002060010160009054906101000a900460ff1690506001151581151514610d15576040517f08c379a0000000000000000000000000000000000000000000000000000000008152600401610d0c9061389d565b60405180910390fd5b60125482610d2391906138ec565b341015610d65576040517f08c379a0000000000000000000000000000000000000000000000000000000008152600401610d5c9061397a565b60405180910390fd5b60095482610d716111a9565b610d7b919061399a565b1115610dbc576040517f08c379a0000000000000000000000000000000000000000000000000000000008152600401610db390613a40565b60405180910390fd5b601554601060003373ffffffffffffffffffffffffffffffffffffffff1673ffffffffffffffffffffffffffffffffffffffff1681526020019081526020016000206000015410610e42576040517f08c379a0000000000000000000000000000000000000000000000000000000008152600401610e3990613aac565b60405180910390fd5b610e4c33836124e7565b81601060003373ffffffffffffffffffffffffffffffffffffffff1673ffffffffffffffffffffffffffffffffffffffff16815260200190815260200160002060000154610e9a919061399a565b601060003373ffffffffffffffffffffffffffffffffffffffff1673ffffffffffffffffffffffffffffffffffffffff16815260200190815260200160002060000181905550610ef660125483610ef191906138ec565b612505565b610efe612563565b505050565b606060038054610f1290613afb565b80601f0160208091040260200160405190810160405280929190818152602001828054610f3e90613afb565b8015610f8b5780601f10610f6057610100808354040283529160200191610f8b565b820191906000526020600020905b815481529060010190602001808311610f6e57829003601f168201915b5050505050905090565b6000610fa0826125d1565b610fd6576040517fcf4700e400000000000000000000000000000000000000000000000000000000815260040160405180910390fd5b6007600083815260200190815260200160002060000160009054906101000a900473ffffffffffffffffffffffffffffffffffffffff169050919050565b600061101f826118fc565b90508073ffffffffffffffffffffffffffffffffffffffff16611040612630565b73ffffffffffffffffffffffffffffffffffffffff16146110a35761106c81611067612630565b61228d565b6110a2576040517fcfb3b94200000000000000000000000000000000000000000000000000000000815260040160405180910390fd5b5b826007600084815260200190815260200160002060000160006101000a81548173ffffffffffffffffffffffffffffffffffffffff021916908373ffffffffffffffffffffffffffffffffffffffff160217905550818373ffffffffffffffffffffffffffffffffffffffff168273ffffffffffffffffffffffffffffffffffffffff167f8c5be1e5ebec7d5bd14f71427d1e84f3dd0314c0f7b2291e5b200ac8c7c3b92560405160405180910390a4505050565b611160612638565b3373ffffffffffffffffffffffffffffffffffffffff166108fc479081150290604051600060405180830381858888f193505050501580156111a6573d6000803e3d6000fd5b50565b60006111b36126b6565b6002546001540303905090565b6111c8612638565b80600a60016101000a81548160ff02191690831515021790555050565b60006111f0826126bb565b90508373ffffffffffffffffffffffffffffffffffffffff168173ffffffffffffffffffffffffffffffffffffffff1614611257576040517fa114810000000000000000000000000000000000000000000000000000000000815260040160405180910390fd5b60008061126384612787565b915091506112798187611274612630565b6127ae565b6112c55761128e86611289612630565b61228d565b6112c4576040517f59c896be00000000000000000000000000000000000000000000000000000000815260040160405180910390fd5b5b600073ffffffffffffffffffffffffffffffffffffffff168573ffffffffffffffffffffffffffffffffffffffff160361132b576040517fea553b3400000000000000000000000000000000000000000000000000000000815260040160405180910390fd5b61133886868660016127f2565b801561134357600082555b600660008773ffffffffffffffffffffffffffffffffffffffff1673ffffffffffffffffffffffffffffffffffffffff168152602001908152602001600020600081546001900391905081905550600660008673ffffffffffffffffffffffffffffffffffffffff1673ffffffffffffffffffffffffffffffffffffffff1681526020019081526020016000206000815460010191905081905550611411856113ed8888876127f8565b7c020000000000000000000000000000000000000000000000000000000017612820565b600560008681526020019081526020016000208190555060007c02000000000000000000000000000000000000000000000000000000008416036114975760006001850190506000600560008381526020019081526020016000205403611495576001548114611494578360056000838152602001908152602001600020819055505b5b505b838573ffffffffffffffffffffffffffffffffffffffff168773ffffffffffffffffffffffffffffffffffffffff167fddf252ad1be2c89b69c2b068fc378daa952ba7f163c4a11628f55a4df523b3ef60405160405180910390a46114ff868686600161284b565b505050505050565b600080339050601060008273ffffffffffffffffffffffffffffffffffffffff1673ffffffffffffffffffffffffffffffffffffffff1681526020019081526020016000206000015491505090565b61155e612638565b8060158190555050565b3373ffffffffffffffffffffffffffffffffffffffff163273ffffffffffffffffffffffffffffffffffffffff16146115d6576040517f08c379a00000000000000000000000000000000000000000000000000000000081526004016115cd9061370d565b60405180910390fd5b60011515600a60019054906101000a900460ff1615151461162c576040517f08c379a00000000000000000000000000000000000000000000000000000000081526004016116239061379f565b60405180910390fd5b60018081111561163f5761163e613171565b5b600a60009054906101000a900460ff16600181111561166157611660613171565b5b146116a1576040517f08c379a000000000000000000000000000000000000000000000000000000000815260040161169890613b78565b60405180910390fd5b601454816116af91906138ec565b3410156116f1576040517f08c379a00000000000000000000000000000000000000000000000000000000081526004016116e89061397a565b60405180910390fd5b600954816116fd6111a9565b611707919061399a565b1115611748576040517f08c379a000000000000000000000000000000000000000000000000000000000815260040161173f90613a40565b60405180910390fd5b601554601060003373ffffffffffffffffffffffffffffffffffffffff1673ffffffffffffffffffffffffffffffffffffffff16815260200190815260200160002060000154106117ce576040517f08c379a00000000000000000000000000000000000000000000000000000000081526004016117c590613aac565b60405180910390fd5b6117d833826124e7565b80601060003373ffffffffffffffffffffffffffffffffffffffff1673ffffffffffffffffffffffffffffffffffffffff16815260200190815260200160002060000154611826919061399a565b601060003373ffffffffffffffffffffffffffffffffffffffff1673ffffffffffffffffffffffffffffffffffffffff168152602001908152602001600020600001819055506118826014548261187d91906138ec565b612505565b61188a612563565b5050565b60135481565b6118af83838360405180602001604052806000815250611f1a565b505050565b600a60029054906101000a900460ff1681565b6118cf612638565b6001600a60006101000a81548160ff021916908360018111156118f5576118f4613171565b5b0217905550565b6000611907826126bb565b9050919050565b60125481565b61191c612638565b6000600a60006101000a81548160ff0219169083600181111561194257611941613171565b5b0217905550565b611951612638565b8060138190555050565b611963612638565b8060098190555050565b60008073ffffffffffffffffffffffffffffffffffffffff168273ffffffffffffffffffffffffffffffffffffffff16036119d4576040517f8f4eb60400000000000000000000000000000000000000000000000000000000815260040160405180910390fd5b67ffffffffffffffff600660008473ffffffffffffffffffffffffffffffffffffffff1673ffffffffffffffffffffffffffffffffffffffff16815260200190815260200160002054169050919050565b611a2d612638565b611a376000612851565b565b600080339050601060008273ffffffffffffffffffffffffffffffffffffffff1673ffffffffffffffffffffffffffffffffffffffff16815260200190815260200160002060010160009054906101000a900460ff1691505090565b60008060009054906101000a900473ffffffffffffffffffffffffffffffffffffffff16905090565b600e60009054906101000a900473ffffffffffffffffffffffffffffffffffffffff1681565b600a60009054906101000a900460ff1681565b606060048054611b0690613afb565b80601f0160208091040260200160405190810160405280929190818152602001828054611b3290613afb565b8015611b7f5780601f10611b5457610100808354040283529160200191611b7f565b820191906000526020600020905b815481529060010190602001808311611b6257829003601f168201915b5050505050905090565b600a60019054906101000a900460ff1681565b611ba4612638565b80600b9081611bb39190613d44565b5050565b6000611bc1612638565b47905090565b8060086000611bd4612630565b73ffffffffffffffffffffffffffffffffffffffff1673ffffffffffffffffffffffffffffffffffffffff16815260200190815260200160002060008473ffffffffffffffffffffffffffffffffffffffff1673ffffffffffffffffffffffffffffffffffffffff16815260200190815260200160002060006101000a81548160ff0219169083151502179055508173ffffffffffffffffffffffffffffffffffffffff16611c81612630565b73ffffffffffffffffffffffffffffffffffffffff167f17307eab39ab6107e8899845ad3d59bd9653f200f220920489ca2b5937696c3183604051611cc69190612e76565b60405180910390a35050565b3373ffffffffffffffffffffffffffffffffffffffff163273ffffffffffffffffffffffffffffffffffffffff1614611d40576040517f08c379a0000000000000000000000000000000000000000000000000000000008152600401611d379061370d565b60405180910390fd5b60011515600a60019054906101000a900460ff16151514611d96576040517f08c379a0000000000000000000000000000000000000000000000000000000008152600401611d8d9061379f565b60405180910390fd5b60095481611da26111a9565b611dac919061399a565b1115611ded576040517f08c379a0000000000000000000000000000000000000000000000000000000008152600401611de490613a40565b60405180910390fd5b601554601060003373ffffffffffffffffffffffffffffffffffffffff1673ffffffffffffffffffffffffffffffffffffffff1681526020019081526020016000206000015410611e73576040517f08c379a0000000000000000000000000000000000000000000000000000000008152600401611e6a90613aac565b60405180910390fd5b611e7d33826124e7565b80601060003373ffffffffffffffffffffffffffffffffffffffff1673ffffffffffffffffffffffffffffffffffffffff16815260200190815260200160002060000154611ecb919061399a565b601060003373ffffffffffffffffffffffffffffffffffffffff1673ffffffffffffffffffffffffffffffffffffffff1681526020019081526020016000206000018190555050565b60145481565b611f258484846111e5565b60008373ffffffffffffffffffffffffffffffffffffffff163b14611f8757611f5084848484612915565b611f86576040517fd1a57ed600000000000000000000000000000000000000000000000000000000815260040160405180910390fd5b5b50505050565b60106020528060005260406000206000915090508060000154908060010160009054906101000a900460ff16905082565b611fc6612638565b8060128190555050565b611fd8612638565b80600c9081611fe79190613d44565b5050565b611ff3612638565b8060148190555050565b6060612008826125d1565b61203e576040517fa14c4b5000000000000000000000000000000000000000000000000000000000815260040160405180910390fd5b6000612048612a65565b9050600a60029054906101000a900460ff1615612094578061206984612af7565b600d60405160200161207d93929190613ed5565b604051602081830303815290604052915050612123565b600c80546120a190613afb565b80601f01602080910402602001604051908101604052809291908181526020018280546120cd90613afb565b801561211a5780601f106120ef5761010080835404028352916020019161211a565b820191906000526020600020905b8154815290600101906020018083116120fd57829003601f168201915b50505050509150505b919050565b60155481565b606060018081111561214357612142613171565b5b600a60009054906101000a900460ff16600181111561216557612164613171565b5b036121a7576040518060400160405280600681526020017f7075626c696300000000000000000000000000000000000000000000000000008152509050612220565b600060018111156121bb576121ba613171565b5b600a60009054906101000a900460ff1660018111156121dd576121dc613171565b5b0361221f576040518060400160405280600981526020017f77686974656c69737400000000000000000000000000000000000000000000008152509050612220565b5b90565b60095481565b6011818154811061223957600080fd5b906000526020600020016000915054906101000a900473ffffffffffffffffffffffffffffffffffffffff1681565b612270612638565b80600a60026101000a81548160ff02191690831515021790555050565b6000600860008473ffffffffffffffffffffffffffffffffffffffff1673ffffffffffffffffffffffffffffffffffffffff16815260200190815260200160002060008373ffffffffffffffffffffffffffffffffffffffff1673ffffffffffffffffffffffffffffffffffffffff16815260200190815260200160002060009054906101000a900460ff16905092915050565b600f60009054906101000a900473ffffffffffffffffffffffffffffffffffffffff1681565b61234f612638565b60005b81518110156124605760118282815181106123705761236f613f06565b5b60200260200101519080600181540180825580915050600190039060005260206000200160009091909190916101000a81548173ffffffffffffffffffffffffffffffffffffffff021916908373ffffffffffffffffffffffffffffffffffffffff1602179055506001601060008484815181106123f1576123f0613f06565b5b602002602001015173ffffffffffffffffffffffffffffffffffffffff1673ffffffffffffffffffffffffffffffffffffffff16815260200190815260200160002060010160006101000a81548160ff021916908315150217905550808061245890613f35565b915050612352565b5050565b61246c612638565b600073ffffffffffffffffffffffffffffffffffffffff168173ffffffffffffffffffffffffffffffffffffffff16036124db576040517f08c379a00000000000000000000000000000000000000000000000000000000081526004016124d290613fef565b60405180910390fd5b6124e481612851565b50565b612501828260405180602001604052806000815250612b47565b5050565b80341115612560573373ffffffffffffffffffffffffffffffffffffffff166108fc8234612533919061400f565b9081150290604051600060405180830381858888f1935050505015801561255e573d6000803e3d6000fd5b505b50565b6060600f60009054906101000a900473ffffffffffffffffffffffffffffffffffffffff1673ffffffffffffffffffffffffffffffffffffffff166108fc479081150290604051600060405180830381858888f193505050501580156125cd573d6000803e3d6000fd5b5090565b6000816125dc6126b6565b111580156125eb575060015482105b8015612629575060007c0100000000000000000000000000000000000000000000000000000000600560008581526020019081526020016000205416145b9050919050565b600033905090565b612640612be5565b73ffffffffffffffffffffffffffffffffffffffff1661265e611a95565b73ffffffffffffffffffffffffffffffffffffffff16146126b4576040517f08c379a00000000000000000000000000000000000000000000000000000000081526004016126ab9061408f565b60405180910390fd5b565b600090565b600080829050806126ca6126b6565b116127505760015481101561274f5760006005600083815260200190815260200160002054905060007c010000000000000000000000000000000000000000000000000000000082160361274d575b60008103612743576005600083600190039350838152602001908152602001600020549050612719565b8092505050612782565b505b5b6040517fdf2d9b4200000000000000000000000000000000000000000000000000000000815260040160405180910390fd5b919050565b60008060006007600085815260200190815260200160002090508092508254915050915091565b600073ffffffffffffffffffffffffffffffffffffffff8316925073ffffffffffffffffffffffffffffffffffffffff821691508382148383141790509392505050565b50505050565b60008060e883901c905060e861280f868684612bed565b62ffffff16901b9150509392505050565b600073ffffffffffffffffffffffffffffffffffffffff83169250814260a01b178317905092915050565b50505050565b60008060009054906101000a900473ffffffffffffffffffffffffffffffffffffffff169050816000806101000a81548173ffffffffffffffffffffffffffffffffffffffff021916908373ffffffffffffffffffffffffffffffffffffffff1602179055508173ffffffffffffffffffffffffffffffffffffffff168173ffffffffffffffffffffffffffffffffffffffff167f8be0079c531659141344cd1fd0a4f28419497f9722a3daafe3b4186f6b6457e060405160405180910390a35050565b60008373ffffffffffffffffffffffffffffffffffffffff1663150b7a0261293b612630565b8786866040518563ffffffff1660e01b815260040161295d9493929190614104565b6020604051808303816000875af192505050801561299957506040513d601f19601f820116820180604052508101906129969190614165565b60015b612a12573d80600081146129c9576040519150601f19603f3d011682016040523d82523d6000602084013e6129ce565b606091505b506000815103612a0a576040517fd1a57ed600000000000000000000000000000000000000000000000000000000815260040160405180910390fd5b805181602001fd5b63150b7a0260e01b7bffffffffffffffffffffffffffffffffffffffffffffffffffffffff1916817bffffffffffffffffffffffffffffffffffffffffffffffffffffffff191614915050949350505050565b6060600b8054612a7490613afb565b80601f0160208091040260200160405190810160405280929190818152602001828054612aa090613afb565b8015612aed5780601f10612ac257610100808354040283529160200191612aed565b820191906000526020600020905b815481529060010190602001808311612ad057829003601f168201915b5050505050905090565b606060a060405101806040526020810391506000825281835b600115612b3257600184039350600a81066030018453600a8104905080612b10575b50828103602084039350808452505050919050565b612b518383612bf6565b60008373ffffffffffffffffffffffffffffffffffffffff163b14612be05760006001549050600083820390505b612b926000868380600101945086612915565b612bc8576040517fd1a57ed600000000000000000000000000000000000000000000000000000000815260040160405180910390fd5b818110612b7f578160015414612bdd57600080fd5b50505b505050565b600033905090565b60009392505050565b6000600154905060008203612c37576040517fb562e8dd00000000000000000000000000000000000000000000000000000000815260040160405180910390fd5b612c4460008483856127f2565b600160406001901b178202600660008573ffffffffffffffffffffffffffffffffffffffff1673ffffffffffffffffffffffffffffffffffffffff16815260200190815260200160002060008282540192505081905550612cbb83612cac60008660006127f8565b612cb585612db2565b17612820565b6005600083815260200190815260200160002081905550600080838301905073ffffffffffffffffffffffffffffffffffffffff85169150828260007fddf252ad1be2c89b69c2b068fc378daa952ba7f163c4a11628f55a4df523b3ef600080a4600183015b818114612d5c57808360007fddf252ad1be2c89b69c2b068fc378daa952ba7f163c4a11628f55a4df523b3ef600080a4600181019050612d21565b5060008203612d97576040517f2e07630000000000000000000000000000000000000000000000000000000000815260040160405180910390fd5b806001819055505050612dad600084838561284b565b505050565b60006001821460e11b9050919050565b6000604051905090565b600080fd5b600080fd5b60007fffffffff0000000000000000000000000000000000000000000000000000000082169050919050565b612e0b81612dd6565b8114612e1657600080fd5b50565b600081359050612e2881612e02565b92915050565b600060208284031215612e4457612e43612dcc565b5b6000612e5284828501612e19565b91505092915050565b60008115159050919050565b612e7081612e5b565b82525050565b6000602082019050612e8b6000830184612e67565b92915050565b6000819050919050565b612ea481612e91565b8114612eaf57600080fd5b50565b600081359050612ec181612e9b565b92915050565b600060208284031215612edd57612edc612dcc565b5b6000612eeb84828501612eb2565b91505092915050565b600081519050919050565b600082825260208201905092915050565b60005b83811015612f2e578082015181840152602081019050612f13565b60008484015250505050565b6000601f19601f8301169050919050565b6000612f5682612ef4565b612f608185612eff565b9350612f70818560208601612f10565b612f7981612f3a565b840191505092915050565b60006020820190508181036000830152612f9e8184612f4b565b905092915050565b600073ffffffffffffffffffffffffffffffffffffffff82169050919050565b6000612fd182612fa6565b9050919050565b612fe181612fc6565b82525050565b6000602082019050612ffc6000830184612fd8565b92915050565b61300b81612fc6565b811461301657600080fd5b50565b60008135905061302881613002565b92915050565b6000806040838503121561304557613044612dcc565b5b600061305385828601613019565b925050602061306485828601612eb2565b9150509250929050565b61307781612e91565b82525050565b6000602082019050613092600083018461306e565b92915050565b6130a181612e5b565b81146130ac57600080fd5b50565b6000813590506130be81613098565b92915050565b6000602082840312156130da576130d9612dcc565b5b60006130e8848285016130af565b91505092915050565b60008060006060848603121561310a57613109612dcc565b5b600061311886828701613019565b935050602061312986828701613019565b925050604061313a86828701612eb2565b9150509250925092565b60006020828403121561315a57613159612dcc565b5b600061316884828501613019565b91505092915050565b7f4e487b7100000000000000000000000000000000000000000000000000000000600052602160045260246000fd5b600281106131b1576131b0613171565b5b50565b60008190506131c2826131a0565b919050565b60006131d2826131b4565b9050919050565b6131e2816131c7565b82525050565b60006020820190506131fd60008301846131d9565b92915050565b600080fd5b600080fd5b7f4e487b7100000000000000000000000000000000000000000000000000000000600052604160045260246000fd5b61324582612f3a565b810181811067ffffffffffffffff821117156132645761326361320d565b5b80604052505050565b6000613277612dc2565b9050613283828261323c565b919050565b600067ffffffffffffffff8211156132a3576132a261320d565b5b6132ac82612f3a565b9050602081019050919050565b82818337600083830152505050565b60006132db6132d684613288565b61326d565b9050828152602081018484840111156132f7576132f6613208565b5b6133028482856132b9565b509392505050565b600082601f83011261331f5761331e613203565b5b813561332f8482602086016132c8565b91505092915050565b60006020828403121561334e5761334d612dcc565b5b600082013567ffffffffffffffff81111561336c5761336b612dd1565b5b6133788482850161330a565b91505092915050565b6000806040838503121561339857613397612dcc565b5b60006133a685828601613019565b92505060206133b7858286016130af565b9150509250929050565b600067ffffffffffffffff8211156133dc576133db61320d565b5b6133e582612f3a565b9050602081019050919050565b6000613405613400846133c1565b61326d565b90508281526020810184848401111561342157613420613208565b5b61342c8482856132b9565b509392505050565b600082601f83011261344957613448613203565b5b81356134598482602086016133f2565b91505092915050565b6000806000806080858703121561347c5761347b612dcc565b5b600061348a87828801613019565b945050602061349b87828801613019565b93505060406134ac87828801612eb2565b925050606085013567ffffffffffffffff8111156134cd576134cc612dd1565b5b6134d987828801613434565b91505092959194509250565b60006040820190506134fa600083018561306e565b6135076020830184612e67565b9392505050565b6000806040838503121561352557613524612dcc565b5b600061353385828601613019565b925050602061354485828601613019565b9150509250929050565b600061355982612fa6565b9050919050565b6135698161354e565b82525050565b60006020820190506135846000830184613560565b92915050565b600067ffffffffffffffff8211156135a5576135a461320d565b5b602082029050602081019050919050565b600080fd5b60006135ce6135c98461358a565b61326d565b905080838252602082019050602084028301858111156135f1576135f06135b6565b5b835b8181101561361a57806136068882613019565b8452602084019350506020810190506135f3565b5050509392505050565b600082601f83011261363957613638613203565b5b81356136498482602086016135bb565b91505092915050565b60006020828403121561366857613667612dcc565b5b600082013567ffffffffffffffff81111561368657613685612dd1565b5b61369284828501613624565b91505092915050565b7f546869732063616c6c2069732066726f6d20416e6f7468657220436f6e74726160008201527f6374000000000000000000000000000000000000000000000000000000000000602082015250565b60006136f7602283612eff565b91506137028261369b565b604082019050919050565b60006020820190508181036000830152613726816136ea565b9050919050565b7f4d696e74206973206e6f74207374617274656420796574206f7220686173206660008201527f696e69736865642e000000000000000000000000000000000000000000000000602082015250565b6000613789602883612eff565b91506137948261372d565b604082019050919050565b600060208201905081810360008301526137b88161377c565b9050919050565b7f57686974654c697374204d696e7420656e646564206f72206e6f74207374617260008201527f7465640000000000000000000000000000000000000000000000000000000000602082015250565b600061381b602383612eff565b9150613826826137bf565b604082019050919050565b6000602082019050818103600083015261384a8161380e565b9050919050565b7f5468652061646472657373206973206e6f742057686974656c69737465642100600082015250565b6000613887601f83612eff565b915061389282613851565b602082019050919050565b600060208201905081810360008301526138b68161387a565b9050919050565b7f4e487b7100000000000000000000000000000000000000000000000000000000600052601160045260246000fd5b60006138f782612e91565b915061390283612e91565b925082820261391081612e91565b91508282048414831517613927576139266138bd565b5b5092915050565b7f4d696e74205072696365206973206d6f72650000000000000000000000000000600082015250565b6000613964601283612eff565b915061396f8261392e565b602082019050919050565b6000602082019050818103600083015261399381613957565b9050919050565b60006139a582612e91565b91506139b083612e91565b92508282019050808211156139c8576139c76138bd565b5b92915050565b7f4e6f7420656e6f75676820746f6b656e73206c65667420746f206265206d696e60008201527f7465642e00000000000000000000000000000000000000000000000000000000602082015250565b6000613a2a602483612eff565b9150613a35826139ce565b604082019050919050565b60006020820190508181036000830152613a5981613a1d565b9050919050565b7f43616e2774206d696e74206d6f7265207468616e206d6178206c696d69740000600082015250565b6000613a96601e83612eff565b9150613aa182613a60565b602082019050919050565b60006020820190508181036000830152613ac581613a89565b9050919050565b7f4e487b7100000000000000000000000000000000000000000000000000000000600052602260045260246000fd5b60006002820490506001821680613b1357607f821691505b602082108103613b2657613b25613acc565b5b50919050565b7f5075626c6963204d696e7420656e646564206f72206e6f742073746172746564600082015250565b6000613b62602083612eff565b9150613b6d82613b2c565b602082019050919050565b60006020820190508181036000830152613b9181613b55565b9050919050565b60008190508160005260206000209050919050565b60006020601f8301049050919050565b600082821b905092915050565b600060088302613bfa7fffffffffffffffffffffffffffffffffffffffffffffffffffffffffffffffff82613bbd565b613c048683613bbd565b95508019841693508086168417925050509392505050565b6000819050919050565b6000613c41613c3c613c3784612e91565b613c1c565b612e91565b9050919050565b6000819050919050565b613c5b83613c26565b613c6f613c6782613c48565b848454613bca565b825550505050565b600090565b613c84613c77565b613c8f818484613c52565b505050565b5b81811015613cb357613ca8600082613c7c565b600181019050613c95565b5050565b601f821115613cf857613cc981613b98565b613cd284613bad565b81016020851015613ce1578190505b613cf5613ced85613bad565b830182613c94565b50505b505050565b600082821c905092915050565b6000613d1b60001984600802613cfd565b1980831691505092915050565b6000613d348383613d0a565b9150826002028217905092915050565b613d4d82612ef4565b67ffffffffffffffff811115613d6657613d6561320d565b5b613d708254613afb565b613d7b828285613cb7565b600060209050601f831160018114613dae5760008415613d9c578287015190505b613da68582613d28565b865550613e0e565b601f198416613dbc86613b98565b60005b82811015613de457848901518255600182019150602085019450602081019050613dbf565b86831015613e015784890151613dfd601f891682613d0a565b8355505b6001600288020188555050505b505050505050565b600081905092915050565b6000613e2c82612ef4565b613e368185613e16565b9350613e46818560208601612f10565b80840191505092915050565b60008154613e5f81613afb565b613e698186613e16565b94506001821660008114613e845760018114613e9957613ecc565b60ff1983168652811515820286019350613ecc565b613ea285613b98565b60005b83811015613ec457815481890152600182019150602081019050613ea5565b838801955050505b50505092915050565b6000613ee18286613e21565b9150613eed8285613e21565b9150613ef98284613e52565b9150819050949350505050565b7f4e487b7100000000000000000000000000000000000000000000000000000000600052603260045260246000fd5b6000613f4082612e91565b91507fffffffffffffffffffffffffffffffffffffffffffffffffffffffffffffffff8203613f7257613f716138bd565b5b600182019050919050565b7f4f776e61626c653a206e6577206f776e657220697320746865207a65726f206160008201527f6464726573730000000000000000000000000000000000000000000000000000602082015250565b6000613fd9602683612eff565b9150613fe482613f7d565b604082019050919050565b6000602082019050818103600083015261400881613fcc565b9050919050565b600061401a82612e91565b915061402583612e91565b925082820390508181111561403d5761403c6138bd565b5b92915050565b7f4f776e61626c653a2063616c6c6572206973206e6f7420746865206f776e6572600082015250565b6000614079602083612eff565b915061408482614043565b602082019050919050565b600060208201905081810360008301526140a88161406c565b9050919050565b600081519050919050565b600082825260208201905092915050565b60006140d6826140af565b6140e081856140ba565b93506140f0818560208601612f10565b6140f981612f3a565b840191505092915050565b60006080820190506141196000830187612fd8565b6141266020830186612fd8565b614133604083018561306e565b818103606083015261414581846140cb565b905095945050505050565b60008151905061415f81612e02565b92915050565b60006020828403121561417b5761417a612dcc565b5b600061418984828501614150565b9150509291505056fea2646970667358221220e096a03313a83ed4234fe1012fb3f36e48b2a74b4475af73b738bc2d2827b8a664736f6c63430008110033",
  "linkReferences": {},
  "deployedLinkReferences": {}
}