{
  "_format": "hh-sol-artifact-1",
  "contractName": "WildListNFT",
  "sourceName": "contracts/WildlistMint.sol",
  "abi": [
    {
      "inputs": [
        {
          "internalType": "string",
          "name": "name",
          "type": "string"
        },
        {
          "internalType": "string",
          "name": "symbol",
          "type": "string"
        },
        {
          "internalType": "string",
          "name": "_baseuri",
          "type": "string"
        },
        {
          "internalType": "string",
          "name": "_notRevealedUri",
          "type": "string"
        }
      ],
      "stateMutability": "nonpayable",
      "type": "constructor"
    },
    {
      "inputs": [],
      "name": "ApprovalCallerNotOwnerNorApproved",
      "type": "error"
    },
    {
      "inputs": [],
      "name": "ApprovalQueryForNonexistentToken",
      "type": "error"
    },
    {
      "inputs": [],
      "name": "BalanceQueryForZeroAddress",
      "type": "error"
    },
    {
      "inputs": [],
      "name": "MintERC2309QuantityExceedsLimit",
      "type": "error"
    },
    {
      "inputs": [],
      "name": "MintToZeroAddress",
      "type": "error"
    },
    {
      "inputs": [],
      "name": "MintZeroQuantity",
      "type": "error"
    },
    {
      "inputs": [],
      "name": "OwnerQueryForNonexistentToken",
      "type": "error"
    },
    {
      "inputs": [],
      "name": "OwnershipNotInitializedForExtraData",
      "type": "error"
    },
    {
      "inputs": [],
      "name": "TransferCallerNotOwnerNorApproved",
      "type": "error"
    },
    {
      "inputs": [],
      "name": "TransferFromIncorrectOwner",
      "type": "error"
    },
    {
      "inputs": [],
      "name": "TransferToNonERC721ReceiverImplementer",
      "type": "error"
    },
    {
      "inputs": [],
      "name": "TransferToZeroAddress",
      "type": "error"
    },
    {
      "inputs": [],
      "name": "URIQueryForNonexistentToken",
      "type": "error"
    },
    {
      "anonymous": false,
      "inputs": [
        {
          "indexed": true,
          "internalType": "address",
          "name": "owner",
          "type": "address"
        },
        {
          "indexed": true,
          "internalType": "address",
          "name": "approved",
          "type": "address"
        },
        {
          "indexed": true,
          "internalType": "uint256",
          "name": "tokenId",
          "type": "uint256"
        }
      ],
      "name": "Approval",
      "type": "event"
    },
    {
      "anonymous": false,
      "inputs": [
        {
          "indexed": true,
          "internalType": "address",
          "name": "owner",
          "type": "address"
        },
        {
          "indexed": true,
          "internalType": "address",
          "name": "operator",
          "type": "address"
        },
        {
          "indexed": false,
          "internalType": "bool",
          "name": "approved",
          "type": "bool"
        }
      ],
      "name": "ApprovalForAll",
      "type": "event"
    },
    {
      "anonymous": false,
      "inputs": [
        {
          "indexed": true,
          "internalType": "uint256",
          "name": "fromTokenId",
          "type": "uint256"
        },
        {
          "indexed": false,
          "internalType": "uint256",
          "name": "toTokenId",
          "type": "uint256"
        },
        {
          "indexed": true,
          "internalType": "address",
          "name": "from",
          "type": "address"
        },
        {
          "indexed": true,
          "internalType": "address",
          "name": "to",
          "type": "address"
        }
      ],
      "name": "ConsecutiveTransfer",
      "type": "event"
    },
    {
      "anonymous": false,
      "inputs": [
        {
          "indexed": true,
          "internalType": "address",
          "name": "previousOwner",
          "type": "address"
        },
        {
          "indexed": true,
          "internalType": "address",
          "name": "newOwner",
          "type": "address"
        }
      ],
      "name": "OwnershipTransferred",
      "type": "event"
    },
    {
      "anonymous": false,
      "inputs": [
        {
          "indexed": true,
          "internalType": "address",
          "name": "from",
          "type": "address"
        },
        {
          "indexed": true,
          "internalType": "address",
          "name": "to",
          "type": "address"
        },
        {
          "indexed": true,
          "internalType": "uint256",
          "name": "tokenId",
          "type": "uint256"
        }
      ],
      "name": "Transfer",
      "type": "event"
    },
    {
      "inputs": [
        {
          "internalType": "address[]",
          "name": "_addwhitelist",
          "type": "address[]"
        }
      ],
      "name": "addWhitelist",
      "outputs": [],
      "stateMutability": "nonpayable",
      "type": "function"
    },
    {
      "inputs": [
        {
          "internalType": "address",
          "name": "to",
          "type": "address"
        },
        {
          "internalType": "uint256",
          "name": "tokenId",
          "type": "uint256"
        }
      ],
      "name": "approve",
      "outputs": [],
      "stateMutability": "payable",
      "type": "function"
    },
    {
      "inputs": [
        {
          "internalType": "address",
          "name": "owner",
          "type": "address"
        }
      ],
      "name": "balanceOf",
      "outputs": [
        {
          "internalType": "uint256",
          "name": "",
          "type": "uint256"
        }
      ],
      "stateMutability": "view",
      "type": "function"
    },
    {
      "inputs": [
        {
          "internalType": "uint256",
          "name": "quantity",
          "type": "uint256"
        }
      ],
      "name": "centralizedMint",
      "outputs": [],
      "stateMutability": "payable",
      "type": "function"
    },
    {
      "inputs": [],
      "name": "contractownerAddress",
      "outputs": [
        {
          "internalType": "address payable",
          "name": "",
          "type": "address"
        }
      ],
      "stateMutability": "view",
      "type": "function"
    },
    {
      "inputs": [
        {
          "internalType": "uint256",
          "name": "tokenId",
          "type": "uint256"
        }
      ],
      "name": "getApproved",
      "outputs": [
        {
          "internalType": "address",
          "name": "",
          "type": "address"
        }
      ],
      "stateMutability": "view",
      "type": "function"
    },
    {
      "inputs": [],
      "name": "getBalanceInSC",
      "outputs": [
        {
          "internalType": "uint256",
          "name": "",
          "type": "uint256"
        }
      ],
      "stateMutability": "nonpayable",
      "type": "function"
    },
    {
      "inputs": [],
      "name": "getSaleType",
      "outputs": [
        {
          "internalType": "string",
          "name": "",
          "type": "string"
        }
      ],
      "stateMutability": "nonpayable",
      "type": "function"
    },
    {
      "inputs": [],
      "name": "getTokenMintedCount",
      "outputs": [
        {
          "internalType": "uint256",
          "name": "",
          "type": "uint256"
        }
      ],
      "stateMutability": "nonpayable",
      "type": "function"
    },
    {
      "inputs": [
        {
          "internalType": "address",
          "name": "",
          "type": "address"
        }
      ],
      "name": "getWhitelistStatus",
      "outputs": [
        {
          "internalType": "bool",
          "name": "",
          "type": "bool"
        }
      ],
      "stateMutability": "nonpayable",
      "type": "function"
    },
    {
      "inputs": [
        {
          "internalType": "address",
          "name": "owner",
          "type": "address"
        },
        {
          "internalType": "address",
          "name": "operator",
          "type": "address"
        }
      ],
      "name": "isApprovedForAll",
      "outputs": [
        {
          "internalType": "bool",
          "name": "",
          "type": "bool"
        }
      ],
      "stateMutability": "view",
      "type": "function"
    },
    {
      "inputs": [],
      "name": "maxPublicMint",
      "outputs": [
        {
          "internalType": "uint256",
          "name": "",
          "type": "uint256"
        }
      ],
      "stateMutability": "view",
      "type": "function"
    },
    {
      "inputs": [],
      "name": "maxSupply",
      "outputs": [
        {
          "internalType": "uint256",
          "name": "",
          "type": "uint256"
        }
      ],
      "stateMutability": "view",
      "type": "function"
    },
    {
      "inputs": [],
      "name": "maxWhiteListMint",
      "outputs": [
        {
          "internalType": "uint256",
          "name": "",
          "type": "uint256"
        }
      ],
      "stateMutability": "view",
      "type": "function"
    },
    {
      "inputs": [
        {
          "internalType": "address",
          "name": "",
          "type": "address"
        }
      ],
      "name": "mintDetails",
      "outputs": [
        {
          "internalType": "uint256",
          "name": "tokenMinted",
          "type": "uint256"
        },
        {
          "internalType": "bool",
          "name": "WhiteListStatus",
          "type": "bool"
        }
      ],
      "stateMutability": "view",
      "type": "function"
    },
    {
      "inputs": [],
      "name": "mintStatus",
      "outputs": [
        {
          "internalType": "bool",
          "name": "",
          "type": "bool"
        }
      ],
      "stateMutability": "view",
      "type": "function"
    },
    {
      "inputs": [],
      "name": "name",
      "outputs": [
        {
          "internalType": "string",
          "name": "",
          "type": "string"
        }
      ],
      "stateMutability": "view",
      "type": "function"
    },
    {
      "inputs": [],
      "name": "owner",
      "outputs": [
        {
          "internalType": "address",
          "name": "",
          "type": "address"
        }
      ],
      "stateMutability": "view",
      "type": "function"
    },
    {
      "inputs": [],
      "name": "ownerAddress",
      "outputs": [
        {
          "internalType": "address",
          "name": "",
          "type": "address"
        }
      ],
      "stateMutability": "view",
      "type": "function"
    },
    {
      "inputs": [
        {
          "internalType": "uint256",
          "name": "tokenId",
          "type": "uint256"
        }
      ],
      "name": "ownerOf",
      "outputs": [
        {
          "internalType": "address",
          "name": "",
          "type": "address"
        }
      ],
      "stateMutability": "view",
      "type": "function"
    },
    {
      "inputs": [
        {
          "internalType": "uint256",
          "name": "quantity",
          "type": "uint256"
        }
      ],
      "name": "publicMint",
      "outputs": [],
      "stateMutability": "payable",
      "type": "function"
    },
    {
      "inputs": [],
      "name": "publicMintStatus",
      "outputs": [
        {
          "internalType": "bool",
          "name": "",
          "type": "bool"
        }
      ],
      "stateMutability": "view",
      "type": "function"
    },
    {
      "inputs": [],
      "name": "publicPrice",
      "outputs": [
        {
          "internalType": "uint256",
          "name": "",
          "type": "uint256"
        }
      ],
      "stateMutability": "view",
      "type": "function"
    },
    {
      "inputs": [
        {
          "internalType": "address[]",
          "name": "_addwhitelist",
          "type": "address[]"
        }
      ],
      "name": "removeWhiteList",
      "outputs": [],
      "stateMutability": "nonpayable",
      "type": "function"
    },
    {
      "inputs": [],
      "name": "renounceOwnership",
      "outputs": [],
      "stateMutability": "nonpayable",
      "type": "function"
    },
    {
      "inputs": [],
      "name": "revealed",
      "outputs": [
        {
          "internalType": "bool",
          "name": "",
          "type": "bool"
        }
      ],
      "stateMutability": "view",
      "type": "function"
    },
    {
      "inputs": [
        {
          "internalType": "address",
          "name": "from",
          "type": "address"
        },
        {
          "internalType": "address",
          "name": "to",
          "type": "address"
        },
        {
          "internalType": "uint256",
          "name": "tokenId",
          "type": "uint256"
        }
      ],
      "name": "safeTransferFrom",
      "outputs": [],
      "stateMutability": "payable",
      "type": "function"
    },
    {
      "inputs": [
        {
          "internalType": "address",
          "name": "from",
          "type": "address"
        },
        {
          "internalType": "address",
          "name": "to",
          "type": "address"
        },
        {
          "internalType": "uint256",
          "name": "tokenId",
          "type": "uint256"
        },
        {
          "internalType": "bytes",
          "name": "_data",
          "type": "bytes"
        }
      ],
      "name": "safeTransferFrom",
      "outputs": [],
      "stateMutability": "payable",
      "type": "function"
    },
    {
      "inputs": [],
      "name": "saleConfig",
      "outputs": [
        {
          "internalType": "enum WildListNFT.SaleConfig",
          "name": "",
          "type": "uint8"
        }
      ],
      "stateMutability": "view",
      "type": "function"
    },
    {
      "inputs": [
        {
          "internalType": "address",
          "name": "operator",
          "type": "address"
        },
        {
          "internalType": "bool",
          "name": "approved",
          "type": "bool"
        }
      ],
      "name": "setApprovalForAll",
      "outputs": [],
      "stateMutability": "nonpayable",
      "type": "function"
    },
    {
      "inputs": [
        {
          "internalType": "string",
          "name": "_baseUri",
          "type": "string"
        }
      ],
      "name": "setBaseUri",
      "outputs": [],
      "stateMutability": "nonpayable",
      "type": "function"
    },
    {
      "inputs": [
        {
          "internalType": "uint256",
          "name": "amount",
          "type": "uint256"
        }
      ],
      "name": "setMaxPublicMint",
      "outputs": [],
      "stateMutability": "nonpayable",
      "type": "function"
    },
    {
      "inputs": [
        {
          "internalType": "uint256",
          "name": "_maxSupply",
          "type": "uint256"
        }
      ],
      "name": "setMaxSupply",
      "outputs": [],
      "stateMutability": "nonpayable",
      "type": "function"
    },
    {
      "inputs": [
        {
          "internalType": "uint256",
          "name": "amount",
          "type": "uint256"
        }
      ],
      "name": "setMaxWhiteListMint",
      "outputs": [],
      "stateMutability": "nonpayable",
      "type": "function"
    },
    {
      "inputs": [
        {
          "internalType": "bool",
          "name": "status",
          "type": "bool"
        }
      ],
      "name": "setMintStatus",
      "outputs": [],
      "stateMutability": "nonpayable",
      "type": "function"
    },
    {
      "inputs": [
        {
          "internalType": "string",
          "name": "_notRevealedUri",
          "type": "string"
        }
      ],
      "name": "setNotRevealedUri",
      "outputs": [],
      "stateMutability": "nonpayable",
      "type": "function"
    },
    {
      "inputs": [
        {
          "internalType": "uint256",
          "name": "_publicPrice",
          "type": "uint256"
        }
      ],
      "name": "setPublicPrice",
      "outputs": [],
      "stateMutability": "nonpayable",
      "type": "function"
    },
    {
      "inputs": [
        {
          "internalType": "bool",
          "name": "_status",
          "type": "bool"
        }
      ],
      "name": "setPublicSale",
      "outputs": [],
      "stateMutability": "nonpayable",
      "type": "function"
    },
    {
      "inputs": [
        {
          "internalType": "bool",
          "name": "_revealed",
          "type": "bool"
        }
      ],
      "name": "setRevealed",
      "outputs": [],
      "stateMutability": "nonpayable",
      "type": "function"
    },
    {
      "inputs": [
        {
          "internalType": "uint256",
          "name": "_whiteListPrice",
          "type": "uint256"
        }
      ],
      "name": "setWhiteListPrice",
      "outputs": [],
      "stateMutability": "nonpayable",
      "type": "function"
    },
    {
      "inputs": [
        {
          "internalType": "bool",
          "name": "_status",
          "type": "bool"
        }
      ],
      "name": "setWhiteListSale",
      "outputs": [],
      "stateMutability": "nonpayable",
      "type": "function"
    },
    {
      "inputs": [
        {
          "internalType": "bytes4",
          "name": "interfaceId",
          "type": "bytes4"
        }
      ],
      "name": "supportsInterface",
      "outputs": [
        {
          "internalType": "bool",
          "name": "",
          "type": "bool"
        }
      ],
      "stateMutability": "view",
      "type": "function"
    },
    {
      "inputs": [],
      "name": "symbol",
      "outputs": [
        {
          "internalType": "string",
          "name": "",
          "type": "string"
        }
      ],
      "stateMutability": "view",
      "type": "function"
    },
    {
      "inputs": [
        {
          "internalType": "uint256",
          "name": "tokenId",
          "type": "uint256"
        }
      ],
      "name": "tokenURI",
      "outputs": [
        {
          "internalType": "string",
          "name": "",
          "type": "string"
        }
      ],
      "stateMutability": "view",
      "type": "function"
    },
    {
      "inputs": [],
      "name": "totalSupply",
      "outputs": [
        {
          "internalType": "uint256",
          "name": "",
          "type": "uint256"
        }
      ],
      "stateMutability": "view",
      "type": "function"
    },
    {
      "inputs": [
        {
          "internalType": "address",
          "name": "from",
          "type": "address"
        },
        {
          "internalType": "address",
          "name": "to",
          "type": "address"
        },
        {
          "internalType": "uint256",
          "name": "tokenId",
          "type": "uint256"
        }
      ],
      "name": "transferFrom",
      "outputs": [],
      "stateMutability": "payable",
      "type": "function"
    },
    {
      "inputs": [
        {
          "internalType": "address",
          "name": "newOwner",
          "type": "address"
        }
      ],
      "name": "transferOwnership",
      "outputs": [],
      "stateMutability": "nonpayable",
      "type": "function"
    },
    {
      "inputs": [
        {
          "internalType": "uint256",
          "name": "quantity",
          "type": "uint256"
        }
      ],
      "name": "whiteListMint",
      "outputs": [],
      "stateMutability": "payable",
      "type": "function"
    },
    {
      "inputs": [],
      "name": "whiteListMintStatus",
      "outputs": [
        {
          "internalType": "bool",
          "name": "",
          "type": "bool"
        }
      ],
      "stateMutability": "view",
      "type": "function"
    },
    {
      "inputs": [],
      "name": "whiteListPrice",
      "outputs": [
        {
          "internalType": "uint256",
          "name": "",
          "type": "uint256"
        }
      ],
      "stateMutability": "view",
      "type": "function"
    },
    {
      "inputs": [],
      "name": "withDraw",
      "outputs": [],
      "stateMutability": "nonpayable",
      "type": "function"
    }
  ],
  "bytecode": "0x60806040526127106009556000600a60006101000a81548160ff021916908360018111156200003357620000326200031e565b5b02179055506000600a60016101000a81548160ff0219169083151502179055506000600a60026101000a81548160ff0219169083151502179055506000600a60036101000a81548160ff0219169083151502179055506000600a60046101000a81548160ff0219169083151502179055506040518060400160405280600581526020017f2e6a736f6e000000000000000000000000000000000000000000000000000000815250600d9081620000ea9190620005c7565b5066c3663566a58000601255600360135567010a741a4627800060145560036015553480156200011957600080fd5b5060405162004bb038038062004bb083398181016040528101906200013f919062000812565b838362000161620001556200024d60201b60201c565b6200025560201b60201c565b8160039081620001729190620005c7565b508060049081620001849190620005c7565b50620001956200031960201b60201c565b600181905550505081600b9081620001ae9190620005c7565b5080600c9081620001c09190620005c7565b5033600e60006101000a81548173ffffffffffffffffffffffffffffffffffffffff021916908373ffffffffffffffffffffffffffffffffffffffff16021790555033600f60006101000a81548173ffffffffffffffffffffffffffffffffffffffff021916908373ffffffffffffffffffffffffffffffffffffffff1602179055505050505062000900565b600033905090565b60008060009054906101000a900473ffffffffffffffffffffffffffffffffffffffff169050816000806101000a81548173ffffffffffffffffffffffffffffffffffffffff021916908373ffffffffffffffffffffffffffffffffffffffff1602179055508173ffffffffffffffffffffffffffffffffffffffff168173ffffffffffffffffffffffffffffffffffffffff167f8be0079c531659141344cd1fd0a4f28419497f9722a3daafe3b4186f6b6457e060405160405180910390a35050565b600090565b7f4e487b7100000000000000000000000000000000000000000000000000000000600052602160045260246000fd5b600081519050919050565b7f4e487b7100000000000000000000000000000000000000000000000000000000600052604160045260246000fd5b7f4e487b7100000000000000000000000000000000000000000000000000000000600052602260045260246000fd5b60006002820490506001821680620003cf57607f821691505b602082108103620003e557620003e462000387565b5b50919050565b60008190508160005260206000209050919050565b60006020601f8301049050919050565b600082821b905092915050565b6000600883026200044f7fffffffffffffffffffffffffffffffffffffffffffffffffffffffffffffffff8262000410565b6200045b868362000410565b95508019841693508086168417925050509392505050565b6000819050919050565b6000819050919050565b6000620004a8620004a26200049c8462000473565b6200047d565b62000473565b9050919050565b6000819050919050565b620004c48362000487565b620004dc620004d382620004af565b8484546200041d565b825550505050565b600090565b620004f3620004e4565b62000500818484620004b9565b505050565b5b8181101562000528576200051c600082620004e9565b60018101905062000506565b5050565b601f82111562000577576200054181620003eb565b6200054c8462000400565b810160208510156200055c578190505b620005746200056b8562000400565b83018262000505565b50505b505050565b600082821c905092915050565b60006200059c600019846008026200057c565b1980831691505092915050565b6000620005b7838362000589565b9150826002028217905092915050565b620005d2826200034d565b67ffffffffffffffff811115620005ee57620005ed62000358565b5b620005fa8254620003b6565b620006078282856200052c565b600060209050601f8311600181146200063f57600084156200062a578287015190505b620006368582620005a9565b865550620006a6565b601f1984166200064f86620003eb565b60005b82811015620006795784890151825560018201915060208501945060208101905062000652565b8683101562000699578489015162000695601f89168262000589565b8355505b6001600288020188555050505b505050505050565b6000604051905090565b600080fd5b600080fd5b600080fd5b600080fd5b6000601f19601f8301169050919050565b620006e882620006cc565b810181811067ffffffffffffffff821117156200070a576200070962000358565b5b80604052505050565b60006200071f620006ae565b90506200072d8282620006dd565b919050565b600067ffffffffffffffff82111562000750576200074f62000358565b5b6200075b82620006cc565b9050602081019050919050565b60005b83811015620007885780820151818401526020810190506200076b565b60008484015250505050565b6000620007ab620007a58462000732565b62000713565b905082815260208101848484011115620007ca57620007c9620006c7565b5b620007d784828562000768565b509392505050565b600082601f830112620007f757620007f6620006c2565b5b81516200080984826020860162000794565b91505092915050565b600080600080608085870312156200082f576200082e620006b8565b5b600085015167ffffffffffffffff81111562000850576200084f620006bd565b5b6200085e87828801620007df565b945050602085015167ffffffffffffffff811115620008825762000881620006bd565b5b6200089087828801620007df565b935050604085015167ffffffffffffffff811115620008b457620008b3620006bd565b5b620008c287828801620007df565b925050606085015167ffffffffffffffff811115620008e657620008e5620006bd565b5b620008f487828801620007df565b91505092959194509250565b6142a080620009106000396000f3fe6080604052600436106102e45760003560e01c80638e89f1e911610190578063beafc89b116100dc578063d5abeb0111610095578063e985e9c51161006f578063e985e9c514610aa2578063ec49b63314610adf578063edac985b14610b0a578063f2fde38b14610b33576102e4565b8063d5abeb0114610a11578063d9ba32fc14610a3c578063e0a8085314610a79576102e4565b8063beafc89b14610903578063c17ecd121461092c578063c627525514610955578063c87b56dd1461097e578063cabadaa0146109bb578063d1e812a3146109e6576102e4565b8063a0bda40011610149578063a945bf8011610123578063a945bf8014610855578063abc45af814610880578063b88d4fde146108a9578063bbea7eef146108c5576102e4565b8063a0bda400146107e5578063a22cb46514610810578063a808befe14610839576102e4565b80638e89f1e9146106e55780638f84aa091461071057806390aa0b0f1461073b57806395d89b41146107665780639da3f8fd14610791578063a0bcfc7f146107bc576102e4565b80632db115441161024f5780636352211e116102085780636f8b44b0116101e25780636f8b44b01461063d57806370a0823114610666578063715018a6146106a35780638da5cb5b146106ba576102e4565b80636352211e146105ac57806368575685146105e95780636d8ee32b14610614576102e4565b80632db11544146104cc578063334cafb0146104e8578063397457911461051357806342842e0e1461053c57806351830227146105585780635aca1bb614610583576102e4565b806318160ddd116102a157806318160ddd146103dd5780631f85e3ca1461040857806323b872dd1461043157806325d0e8111461044d5780632620237014610478578063270ab52c146104a3576102e4565b806301ffc9a7146102e957806302e001ef1461032657806306fdde0314610342578063081812fc1461036d578063095ea7b3146103aa5780630fdb1c10146103c6575b600080fd5b3480156102f557600080fd5b50610310600480360381019061030b9190612f06565b610b5c565b60405161031d9190612f4e565b60405180910390f35b610340600480360381019061033b9190612f9f565b610bee565b005b34801561034e57600080fd5b50610357610f91565b604051610364919061305c565b60405180910390f35b34801561037957600080fd5b50610394600480360381019061038f9190612f9f565b611023565b6040516103a191906130bf565b60405180910390f35b6103c460048036038101906103bf9190613106565b6110a2565b005b3480156103d257600080fd5b506103db6111e6565b005b3480156103e957600080fd5b506103f2611237565b6040516103ff9190613155565b60405180910390f35b34801561041457600080fd5b5061042f600480360381019061042a919061319c565b61124e565b005b61044b600480360381019061044691906131c9565b611273565b005b34801561045957600080fd5b50610462611595565b60405161046f9190613155565b60405180910390f35b34801561048457600080fd5b5061048d6115e4565b60405161049a9190612f4e565b60405180910390f35b3480156104af57600080fd5b506104ca60048036038101906104c59190612f9f565b6115f7565b005b6104e660048036038101906104e19190612f9f565b611609565b005b3480156104f457600080fd5b506104fd611910565b60405161050a9190613155565b60405180910390f35b34801561051f57600080fd5b5061053a60048036038101906105359190613364565b611916565b005b610556600480360381019061055191906131c9565b6119b6565b005b34801561056457600080fd5b5061056d6119d6565b60405161057a9190612f4e565b60405180910390f35b34801561058f57600080fd5b506105aa60048036038101906105a5919061319c565b6119e9565b005b3480156105b857600080fd5b506105d360048036038101906105ce9190612f9f565b611a0e565b6040516105e091906130bf565b60405180910390f35b3480156105f557600080fd5b506105fe611a20565b60405161060b9190613155565b60405180910390f35b34801561062057600080fd5b5061063b60048036038101906106369190612f9f565b611a26565b005b34801561064957600080fd5b50610664600480360381019061065f9190612f9f565b611a38565b005b34801561067257600080fd5b5061068d600480360381019061068891906133ad565b611a4a565b60405161069a9190613155565b60405180910390f35b3480156106af57600080fd5b506106b8611b02565b005b3480156106c657600080fd5b506106cf611b16565b6040516106dc91906130bf565b60405180910390f35b3480156106f157600080fd5b506106fa611b3f565b6040516107079190612f4e565b60405180910390f35b34801561071c57600080fd5b50610725611b52565b60405161073291906130bf565b60405180910390f35b34801561074757600080fd5b50610750611b78565b60405161075d9190613451565b60405180910390f35b34801561077257600080fd5b5061077b611b8b565b604051610788919061305c565b60405180910390f35b34801561079d57600080fd5b506107a6611c1d565b6040516107b39190612f4e565b60405180910390f35b3480156107c857600080fd5b506107e360048036038101906107de9190613521565b611c30565b005b3480156107f157600080fd5b506107fa611c4b565b6040516108079190613155565b60405180910390f35b34801561081c57600080fd5b506108376004803603810190610832919061356a565b611c5b565b005b610853600480360381019061084e9190612f9f565b611d66565b005b34801561086157600080fd5b5061086a611fa8565b6040516108779190613155565b60405180910390f35b34801561088c57600080fd5b506108a760048036038101906108a2919061319c565b611fae565b005b6108c360048036038101906108be919061364b565b611fd3565b005b3480156108d157600080fd5b506108ec60048036038101906108e791906133ad565b612046565b6040516108fa9291906136ce565b60405180910390f35b34801561090f57600080fd5b5061092a60048036038101906109259190612f9f565b612077565b005b34801561093857600080fd5b50610953600480360381019061094e9190613521565b612089565b005b34801561096157600080fd5b5061097c60048036038101906109779190612f9f565b6120a4565b005b34801561098a57600080fd5b506109a560048036038101906109a09190612f9f565b6120b6565b6040516109b2919061305c565b60405180910390f35b3480156109c757600080fd5b506109d06121e1565b6040516109dd9190613155565b60405180910390f35b3480156109f257600080fd5b506109fb6121e7565b604051610a08919061305c565b60405180910390f35b348015610a1d57600080fd5b50610a266122dc565b604051610a339190613155565b60405180910390f35b348015610a4857600080fd5b50610a636004803603810190610a5e91906133ad565b6122e2565b604051610a709190612f4e565b60405180910390f35b348015610a8557600080fd5b50610aa06004803603810190610a9b919061319c565b612340565b005b348015610aae57600080fd5b50610ac96004803603810190610ac491906136f7565b612365565b604051610ad69190612f4e565b60405180910390f35b348015610aeb57600080fd5b50610af46123f9565b604051610b019190613758565b60405180910390f35b348015610b1657600080fd5b50610b316004803603810190610b2c9190613364565b61241f565b005b348015610b3f57600080fd5b50610b5a6004803603810190610b5591906133ad565b61253c565b005b60006301ffc9a760e01b827bffffffffffffffffffffffffffffffffffffffffffffffffffffffff19161480610bb757506380ac58cd60e01b827bffffffffffffffffffffffffffffffffffffffffffffffffffffffff1916145b80610be75750635b5e139f60e01b827bffffffffffffffffffffffffffffffffffffffffffffffffffffffff1916145b9050919050565b3373ffffffffffffffffffffffffffffffffffffffff163273ffffffffffffffffffffffffffffffffffffffff1614610c5c576040517f08c379a0000000000000000000000000000000000000000000000000000000008152600401610c53906137e5565b60405180910390fd5b60011515600a60019054906101000a900460ff16151514610cb2576040517f08c379a0000000000000000000000000000000000000000000000000000000008152600401610ca990613877565b60405180910390fd5b60011515600a60049054906101000a900460ff16151514610d08576040517f08c379a0000000000000000000000000000000000000000000000000000000008152600401610cff90613909565b60405180910390fd5b6000601060003373ffffffffffffffffffffffffffffffffffffffff1673ffffffffffffffffffffffffffffffffffffffff16815260200190815260200160002060010160009054906101000a900460ff1690506001151581151514610da3576040517f08c379a0000000000000000000000000000000000000000000000000000000008152600401610d9a90613975565b60405180910390fd5b60125482610db191906139c4565b341015610df3576040517f08c379a0000000000000000000000000000000000000000000000000000000008152600401610dea90613a52565b60405180910390fd5b60095482610dff611237565b610e099190613a72565b1115610e4a576040517f08c379a0000000000000000000000000000000000000000000000000000000008152600401610e4190613b18565b60405180910390fd5b601554601060003373ffffffffffffffffffffffffffffffffffffffff1673ffffffffffffffffffffffffffffffffffffffff1681526020019081526020016000206000015410610ed0576040517f08c379a0000000000000000000000000000000000000000000000000000000008152600401610ec790613b84565b60405180910390fd5b610eda33836125bf565b81601060003373ffffffffffffffffffffffffffffffffffffffff1673ffffffffffffffffffffffffffffffffffffffff16815260200190815260200160002060000154610f289190613a72565b601060003373ffffffffffffffffffffffffffffffffffffffff1673ffffffffffffffffffffffffffffffffffffffff16815260200190815260200160002060000181905550610f8460125483610f7f91906139c4565b6125dd565b610f8c61263b565b505050565b606060038054610fa090613bd3565b80601f0160208091040260200160405190810160405280929190818152602001828054610fcc90613bd3565b80156110195780601f10610fee57610100808354040283529160200191611019565b820191906000526020600020905b815481529060010190602001808311610ffc57829003601f168201915b5050505050905090565b600061102e826126a9565b611064576040517fcf4700e400000000000000000000000000000000000000000000000000000000815260040160405180910390fd5b6007600083815260200190815260200160002060000160009054906101000a900473ffffffffffffffffffffffffffffffffffffffff169050919050565b60006110ad82611a0e565b90508073ffffffffffffffffffffffffffffffffffffffff166110ce612708565b73ffffffffffffffffffffffffffffffffffffffff1614611131576110fa816110f5612708565b612365565b611130576040517fcfb3b94200000000000000000000000000000000000000000000000000000000815260040160405180910390fd5b5b826007600084815260200190815260200160002060000160006101000a81548173ffffffffffffffffffffffffffffffffffffffff021916908373ffffffffffffffffffffffffffffffffffffffff160217905550818373ffffffffffffffffffffffffffffffffffffffff168273ffffffffffffffffffffffffffffffffffffffff167f8c5be1e5ebec7d5bd14f71427d1e84f3dd0314c0f7b2291e5b200ac8c7c3b92560405160405180910390a4505050565b6111ee612710565b3373ffffffffffffffffffffffffffffffffffffffff166108fc479081150290604051600060405180830381858888f19350505050158015611234573d6000803e3d6000fd5b50565b600061124161278e565b6002546001540303905090565b611256612710565b80600a60016101000a81548160ff02191690831515021790555050565b600061127e82612793565b90508373ffffffffffffffffffffffffffffffffffffffff168173ffffffffffffffffffffffffffffffffffffffff16146112e5576040517fa114810000000000000000000000000000000000000000000000000000000000815260040160405180910390fd5b6000806112f18461285f565b915091506113078187611302612708565b612886565b6113535761131c86611317612708565b612365565b611352576040517f59c896be00000000000000000000000000000000000000000000000000000000815260040160405180910390fd5b5b600073ffffffffffffffffffffffffffffffffffffffff168573ffffffffffffffffffffffffffffffffffffffff16036113b9576040517fea553b3400000000000000000000000000000000000000000000000000000000815260040160405180910390fd5b6113c686868660016128ca565b80156113d157600082555b600660008773ffffffffffffffffffffffffffffffffffffffff1673ffffffffffffffffffffffffffffffffffffffff168152602001908152602001600020600081546001900391905081905550600660008673ffffffffffffffffffffffffffffffffffffffff1673ffffffffffffffffffffffffffffffffffffffff168152602001908152602001600020600081546001019190508190555061149f8561147b8888876128d0565b7c0200000000000000000000000000000000000000000000000000000000176128f8565b600560008681526020019081526020016000208190555060007c02000000000000000000000000000000000000000000000000000000008416036115255760006001850190506000600560008381526020019081526020016000205403611523576001548114611522578360056000838152602001908152602001600020819055505b5b505b838573ffffffffffffffffffffffffffffffffffffffff168773ffffffffffffffffffffffffffffffffffffffff167fddf252ad1be2c89b69c2b068fc378daa952ba7f163c4a11628f55a4df523b3ef60405160405180910390a461158d8686866001612923565b505050505050565b600080339050601060008273ffffffffffffffffffffffffffffffffffffffff1673ffffffffffffffffffffffffffffffffffffffff1681526020019081526020016000206000015491505090565b600a60039054906101000a900460ff1681565b6115ff612710565b8060158190555050565b3373ffffffffffffffffffffffffffffffffffffffff163273ffffffffffffffffffffffffffffffffffffffff1614611677576040517f08c379a000000000000000000000000000000000000000000000000000000000815260040161166e906137e5565b60405180910390fd5b60011515600a60019054906101000a900460ff161515146116cd576040517f08c379a00000000000000000000000000000000000000000000000000000000081526004016116c490613877565b60405180910390fd5b60011515600a60039054906101000a900460ff16151514611723576040517f08c379a000000000000000000000000000000000000000000000000000000000815260040161171a90613c50565b60405180910390fd5b6014548161173191906139c4565b341015611773576040517f08c379a000000000000000000000000000000000000000000000000000000000815260040161176a90613a52565b60405180910390fd5b6009548161177f611237565b6117899190613a72565b11156117ca576040517f08c379a00000000000000000000000000000000000000000000000000000000081526004016117c190613b18565b60405180910390fd5b601554601060003373ffffffffffffffffffffffffffffffffffffffff1673ffffffffffffffffffffffffffffffffffffffff1681526020019081526020016000206000015410611850576040517f08c379a000000000000000000000000000000000000000000000000000000000815260040161184790613b84565b60405180910390fd5b61185a33826125bf565b80601060003373ffffffffffffffffffffffffffffffffffffffff1673ffffffffffffffffffffffffffffffffffffffff168152602001908152602001600020600001546118a89190613a72565b601060003373ffffffffffffffffffffffffffffffffffffffff1673ffffffffffffffffffffffffffffffffffffffff16815260200190815260200160002060000181905550611904601454826118ff91906139c4565b6125dd565b61190c61263b565b5050565b60135481565b61191e612710565b60005b81518110156119b25760006010600084848151811061194357611942613c70565b5b602002602001015173ffffffffffffffffffffffffffffffffffffffff1673ffffffffffffffffffffffffffffffffffffffff16815260200190815260200160002060010160006101000a81548160ff02191690831515021790555080806119aa90613c9f565b915050611921565b5050565b6119d183838360405180602001604052806000815250611fd3565b505050565b600a60029054906101000a900460ff1681565b6119f1612710565b80600a60036101000a81548160ff02191690831515021790555050565b6000611a1982612793565b9050919050565b60125481565b611a2e612710565b8060138190555050565b611a40612710565b8060098190555050565b60008073ffffffffffffffffffffffffffffffffffffffff168273ffffffffffffffffffffffffffffffffffffffff1603611ab1576040517f8f4eb60400000000000000000000000000000000000000000000000000000000815260040160405180910390fd5b67ffffffffffffffff600660008473ffffffffffffffffffffffffffffffffffffffff1673ffffffffffffffffffffffffffffffffffffffff16815260200190815260200160002054169050919050565b611b0a612710565b611b146000612929565b565b60008060009054906101000a900473ffffffffffffffffffffffffffffffffffffffff16905090565b600a60049054906101000a900460ff1681565b600e60009054906101000a900473ffffffffffffffffffffffffffffffffffffffff1681565b600a60009054906101000a900460ff1681565b606060048054611b9a90613bd3565b80601f0160208091040260200160405190810160405280929190818152602001828054611bc690613bd3565b8015611c135780601f10611be857610100808354040283529160200191611c13565b820191906000526020600020905b815481529060010190602001808311611bf657829003601f168201915b5050505050905090565b600a60019054906101000a900460ff1681565b611c38612710565b80600b9081611c479190613e93565b5050565b6000611c55612710565b47905090565b8060086000611c68612708565b73ffffffffffffffffffffffffffffffffffffffff1673ffffffffffffffffffffffffffffffffffffffff16815260200190815260200160002060008473ffffffffffffffffffffffffffffffffffffffff1673ffffffffffffffffffffffffffffffffffffffff16815260200190815260200160002060006101000a81548160ff0219169083151502179055508173ffffffffffffffffffffffffffffffffffffffff16611d15612708565b73ffffffffffffffffffffffffffffffffffffffff167f17307eab39ab6107e8899845ad3d59bd9653f200f220920489ca2b5937696c3183604051611d5a9190612f4e565b60405180910390a35050565b3373ffffffffffffffffffffffffffffffffffffffff163273ffffffffffffffffffffffffffffffffffffffff1614611dd4576040517f08c379a0000000000000000000000000000000000000000000000000000000008152600401611dcb906137e5565b60405180910390fd5b60011515600a60019054906101000a900460ff16151514611e2a576040517f08c379a0000000000000000000000000000000000000000000000000000000008152600401611e2190613877565b60405180910390fd5b60095481611e36611237565b611e409190613a72565b1115611e81576040517f08c379a0000000000000000000000000000000000000000000000000000000008152600401611e7890613b18565b60405180910390fd5b601554601060003373ffffffffffffffffffffffffffffffffffffffff1673ffffffffffffffffffffffffffffffffffffffff1681526020019081526020016000206000015410611f07576040517f08c379a0000000000000000000000000000000000000000000000000000000008152600401611efe90613b84565b60405180910390fd5b611f1133826125bf565b80601060003373ffffffffffffffffffffffffffffffffffffffff1673ffffffffffffffffffffffffffffffffffffffff16815260200190815260200160002060000154611f5f9190613a72565b601060003373ffffffffffffffffffffffffffffffffffffffff1673ffffffffffffffffffffffffffffffffffffffff1681526020019081526020016000206000018190555050565b60145481565b611fb6612710565b80600a60046101000a81548160ff02191690831515021790555050565b611fde848484611273565b60008373ffffffffffffffffffffffffffffffffffffffff163b1461204057612009848484846129ed565b61203f576040517fd1a57ed600000000000000000000000000000000000000000000000000000000815260040160405180910390fd5b5b50505050565b60106020528060005260406000206000915090508060000154908060010160009054906101000a900460ff16905082565b61207f612710565b8060128190555050565b612091612710565b80600c90816120a09190613e93565b5050565b6120ac612710565b8060148190555050565b60606120c1826126a9565b6120f7576040517fa14c4b5000000000000000000000000000000000000000000000000000000000815260040160405180910390fd5b6000612101612b3d565b9050600a60029054906101000a900460ff161561214d578061212284612bcf565b600d60405160200161213693929190614024565b6040516020818303038152906040529150506121dc565b600c805461215a90613bd3565b80601f016020809104026020016040519081016040528092919081815260200182805461218690613bd3565b80156121d35780601f106121a8576101008083540402835291602001916121d3565b820191906000526020600020905b8154815290600101906020018083116121b657829003601f168201915b50505050509150505b919050565b60155481565b60606001808111156121fc576121fb6133da565b5b600a60009054906101000a900460ff16600181111561221e5761221d6133da565b5b03612260576040518060400160405280600681526020017f7075626c6963000000000000000000000000000000000000000000000000000081525090506122d9565b60006001811115612274576122736133da565b5b600a60009054906101000a900460ff166001811115612296576122956133da565b5b036122d8576040518060400160405280600981526020017f77686974656c697374000000000000000000000000000000000000000000000081525090506122d9565b5b90565b60095481565b600080339050601060008273ffffffffffffffffffffffffffffffffffffffff1673ffffffffffffffffffffffffffffffffffffffff16815260200190815260200160002060010160009054906101000a900460ff16915050919050565b612348612710565b80600a60026101000a81548160ff02191690831515021790555050565b6000600860008473ffffffffffffffffffffffffffffffffffffffff1673ffffffffffffffffffffffffffffffffffffffff16815260200190815260200160002060008373ffffffffffffffffffffffffffffffffffffffff1673ffffffffffffffffffffffffffffffffffffffff16815260200190815260200160002060009054906101000a900460ff16905092915050565b600f60009054906101000a900473ffffffffffffffffffffffffffffffffffffffff1681565b612427612710565b60005b815181101561253857601182828151811061244857612447613c70565b5b60200260200101519080600181540180825580915050600190039060005260206000200160009091909190916101000a81548173ffffffffffffffffffffffffffffffffffffffff021916908373ffffffffffffffffffffffffffffffffffffffff1602179055506001601060008484815181106124c9576124c8613c70565b5b602002602001015173ffffffffffffffffffffffffffffffffffffffff1673ffffffffffffffffffffffffffffffffffffffff16815260200190815260200160002060010160006101000a81548160ff021916908315150217905550808061253090613c9f565b91505061242a565b5050565b612544612710565b600073ffffffffffffffffffffffffffffffffffffffff168173ffffffffffffffffffffffffffffffffffffffff16036125b3576040517f08c379a00000000000000000000000000000000000000000000000000000000081526004016125aa906140c7565b60405180910390fd5b6125bc81612929565b50565b6125d9828260405180602001604052806000815250612c1f565b5050565b80341115612638573373ffffffffffffffffffffffffffffffffffffffff166108fc823461260b91906140e7565b9081150290604051600060405180830381858888f19350505050158015612636573d6000803e3d6000fd5b505b50565b6060600f60009054906101000a900473ffffffffffffffffffffffffffffffffffffffff1673ffffffffffffffffffffffffffffffffffffffff166108fc479081150290604051600060405180830381858888f193505050501580156126a5573d6000803e3d6000fd5b5090565b6000816126b461278e565b111580156126c3575060015482105b8015612701575060007c0100000000000000000000000000000000000000000000000000000000600560008581526020019081526020016000205416145b9050919050565b600033905090565b612718612cbd565b73ffffffffffffffffffffffffffffffffffffffff16612736611b16565b73ffffffffffffffffffffffffffffffffffffffff161461278c576040517f08c379a000000000000000000000000000000000000000000000000000000000815260040161278390614167565b60405180910390fd5b565b600090565b600080829050806127a261278e565b11612828576001548110156128275760006005600083815260200190815260200160002054905060007c0100000000000000000000000000000000000000000000000000000000821603612825575b6000810361281b5760056000836001900393508381526020019081526020016000205490506127f1565b809250505061285a565b505b5b6040517fdf2d9b4200000000000000000000000000000000000000000000000000000000815260040160405180910390fd5b919050565b60008060006007600085815260200190815260200160002090508092508254915050915091565b600073ffffffffffffffffffffffffffffffffffffffff8316925073ffffffffffffffffffffffffffffffffffffffff821691508382148383141790509392505050565b50505050565b60008060e883901c905060e86128e7868684612cc5565b62ffffff16901b9150509392505050565b600073ffffffffffffffffffffffffffffffffffffffff83169250814260a01b178317905092915050565b50505050565b60008060009054906101000a900473ffffffffffffffffffffffffffffffffffffffff169050816000806101000a81548173ffffffffffffffffffffffffffffffffffffffff021916908373ffffffffffffffffffffffffffffffffffffffff1602179055508173ffffffffffffffffffffffffffffffffffffffff168173ffffffffffffffffffffffffffffffffffffffff167f8be0079c531659141344cd1fd0a4f28419497f9722a3daafe3b4186f6b6457e060405160405180910390a35050565b60008373ffffffffffffffffffffffffffffffffffffffff1663150b7a02612a13612708565b8786866040518563ffffffff1660e01b8152600401612a3594939291906141dc565b6020604051808303816000875af1925050508015612a7157506040513d601f19601f82011682018060405250810190612a6e919061423d565b60015b612aea573d8060008114612aa1576040519150601f19603f3d011682016040523d82523d6000602084013e612aa6565b606091505b506000815103612ae2576040517fd1a57ed600000000000000000000000000000000000000000000000000000000815260040160405180910390fd5b805181602001fd5b63150b7a0260e01b7bffffffffffffffffffffffffffffffffffffffffffffffffffffffff1916817bffffffffffffffffffffffffffffffffffffffffffffffffffffffff191614915050949350505050565b6060600b8054612b4c90613bd3565b80601f0160208091040260200160405190810160405280929190818152602001828054612b7890613bd3565b8015612bc55780601f10612b9a57610100808354040283529160200191612bc5565b820191906000526020600020905b815481529060010190602001808311612ba857829003601f168201915b5050505050905090565b606060a060405101806040526020810391506000825281835b600115612c0a57600184039350600a81066030018453600a8104905080612be8575b50828103602084039350808452505050919050565b612c298383612cce565b60008373ffffffffffffffffffffffffffffffffffffffff163b14612cb85760006001549050600083820390505b612c6a60008683806001019450866129ed565b612ca0576040517fd1a57ed600000000000000000000000000000000000000000000000000000000815260040160405180910390fd5b818110612c57578160015414612cb557600080fd5b50505b505050565b600033905090565b60009392505050565b6000600154905060008203612d0f576040517fb562e8dd00000000000000000000000000000000000000000000000000000000815260040160405180910390fd5b612d1c60008483856128ca565b600160406001901b178202600660008573ffffffffffffffffffffffffffffffffffffffff1673ffffffffffffffffffffffffffffffffffffffff16815260200190815260200160002060008282540192505081905550612d9383612d8460008660006128d0565b612d8d85612e8a565b176128f8565b6005600083815260200190815260200160002081905550600080838301905073ffffffffffffffffffffffffffffffffffffffff85169150828260007fddf252ad1be2c89b69c2b068fc378daa952ba7f163c4a11628f55a4df523b3ef600080a4600183015b818114612e3457808360007fddf252ad1be2c89b69c2b068fc378daa952ba7f163c4a11628f55a4df523b3ef600080a4600181019050612df9565b5060008203612e6f576040517f2e07630000000000000000000000000000000000000000000000000000000000815260040160405180910390fd5b806001819055505050612e856000848385612923565b505050565b60006001821460e11b9050919050565b6000604051905090565b600080fd5b600080fd5b60007fffffffff0000000000000000000000000000000000000000000000000000000082169050919050565b612ee381612eae565b8114612eee57600080fd5b50565b600081359050612f0081612eda565b92915050565b600060208284031215612f1c57612f1b612ea4565b5b6000612f2a84828501612ef1565b91505092915050565b60008115159050919050565b612f4881612f33565b82525050565b6000602082019050612f636000830184612f3f565b92915050565b6000819050919050565b612f7c81612f69565b8114612f8757600080fd5b50565b600081359050612f9981612f73565b92915050565b600060208284031215612fb557612fb4612ea4565b5b6000612fc384828501612f8a565b91505092915050565b600081519050919050565b600082825260208201905092915050565b60005b83811015613006578082015181840152602081019050612feb565b60008484015250505050565b6000601f19601f8301169050919050565b600061302e82612fcc565b6130388185612fd7565b9350613048818560208601612fe8565b61305181613012565b840191505092915050565b600060208201905081810360008301526130768184613023565b905092915050565b600073ffffffffffffffffffffffffffffffffffffffff82169050919050565b60006130a98261307e565b9050919050565b6130b98161309e565b82525050565b60006020820190506130d460008301846130b0565b92915050565b6130e38161309e565b81146130ee57600080fd5b50565b600081359050613100816130da565b92915050565b6000806040838503121561311d5761311c612ea4565b5b600061312b858286016130f1565b925050602061313c85828601612f8a565b9150509250929050565b61314f81612f69565b82525050565b600060208201905061316a6000830184613146565b92915050565b61317981612f33565b811461318457600080fd5b50565b60008135905061319681613170565b92915050565b6000602082840312156131b2576131b1612ea4565b5b60006131c084828501613187565b91505092915050565b6000806000606084860312156131e2576131e1612ea4565b5b60006131f0868287016130f1565b9350506020613201868287016130f1565b925050604061321286828701612f8a565b9150509250925092565b600080fd5b7f4e487b7100000000000000000000000000000000000000000000000000000000600052604160045260246000fd5b61325982613012565b810181811067ffffffffffffffff8211171561327857613277613221565b5b80604052505050565b600061328b612e9a565b90506132978282613250565b919050565b600067ffffffffffffffff8211156132b7576132b6613221565b5b602082029050602081019050919050565b600080fd5b60006132e06132db8461329c565b613281565b90508083825260208201905060208402830185811115613303576133026132c8565b5b835b8181101561332c578061331888826130f1565b845260208401935050602081019050613305565b5050509392505050565b600082601f83011261334b5761334a61321c565b5b813561335b8482602086016132cd565b91505092915050565b60006020828403121561337a57613379612ea4565b5b600082013567ffffffffffffffff81111561339857613397612ea9565b5b6133a484828501613336565b91505092915050565b6000602082840312156133c3576133c2612ea4565b5b60006133d1848285016130f1565b91505092915050565b7f4e487b7100000000000000000000000000000000000000000000000000000000600052602160045260246000fd5b6002811061341a576134196133da565b5b50565b600081905061342b82613409565b919050565b600061343b8261341d565b9050919050565b61344b81613430565b82525050565b60006020820190506134666000830184613442565b92915050565b600080fd5b600067ffffffffffffffff82111561348c5761348b613221565b5b61349582613012565b9050602081019050919050565b82818337600083830152505050565b60006134c46134bf84613471565b613281565b9050828152602081018484840111156134e0576134df61346c565b5b6134eb8482856134a2565b509392505050565b600082601f8301126135085761350761321c565b5b81356135188482602086016134b1565b91505092915050565b60006020828403121561353757613536612ea4565b5b600082013567ffffffffffffffff81111561355557613554612ea9565b5b613561848285016134f3565b91505092915050565b6000806040838503121561358157613580612ea4565b5b600061358f858286016130f1565b92505060206135a085828601613187565b9150509250929050565b600067ffffffffffffffff8211156135c5576135c4613221565b5b6135ce82613012565b9050602081019050919050565b60006135ee6135e9846135aa565b613281565b90508281526020810184848401111561360a5761360961346c565b5b6136158482856134a2565b509392505050565b600082601f8301126136325761363161321c565b5b81356136428482602086016135db565b91505092915050565b6000806000806080858703121561366557613664612ea4565b5b6000613673878288016130f1565b9450506020613684878288016130f1565b935050604061369587828801612f8a565b925050606085013567ffffffffffffffff8111156136b6576136b5612ea9565b5b6136c28782880161361d565b91505092959194509250565b60006040820190506136e36000830185613146565b6136f06020830184612f3f565b9392505050565b6000806040838503121561370e5761370d612ea4565b5b600061371c858286016130f1565b925050602061372d858286016130f1565b9150509250929050565b60006137428261307e565b9050919050565b61375281613737565b82525050565b600060208201905061376d6000830184613749565b92915050565b7f546869732063616c6c2069732066726f6d20416e6f7468657220436f6e74726160008201527f6374000000000000000000000000000000000000000000000000000000000000602082015250565b60006137cf602283612fd7565b91506137da82613773565b604082019050919050565b600060208201905081810360008301526137fe816137c2565b9050919050565b7f4d696e74206973206e6f74207374617274656420796574206f7220686173206660008201527f696e69736865642e000000000000000000000000000000000000000000000000602082015250565b6000613861602883612fd7565b915061386c82613805565b604082019050919050565b6000602082019050818103600083015261389081613854565b9050919050565b7f57686974654c697374204d696e7420656e646564206f72206e6f74207374617260008201527f7465640000000000000000000000000000000000000000000000000000000000602082015250565b60006138f3602383612fd7565b91506138fe82613897565b604082019050919050565b60006020820190508181036000830152613922816138e6565b9050919050565b7f5468652061646472657373206973206e6f742057686974656c69737465642100600082015250565b600061395f601f83612fd7565b915061396a82613929565b602082019050919050565b6000602082019050818103600083015261398e81613952565b9050919050565b7f4e487b7100000000000000000000000000000000000000000000000000000000600052601160045260246000fd5b60006139cf82612f69565b91506139da83612f69565b92508282026139e881612f69565b915082820484148315176139ff576139fe613995565b5b5092915050565b7f4d696e74205072696365206973206d6f72650000000000000000000000000000600082015250565b6000613a3c601283612fd7565b9150613a4782613a06565b602082019050919050565b60006020820190508181036000830152613a6b81613a2f565b9050919050565b6000613a7d82612f69565b9150613a8883612f69565b9250828201905080821115613aa057613a9f613995565b5b92915050565b7f4e6f7420656e6f75676820746f6b656e73206c65667420746f206265206d696e60008201527f7465642e00000000000000000000000000000000000000000000000000000000602082015250565b6000613b02602483612fd7565b9150613b0d82613aa6565b604082019050919050565b60006020820190508181036000830152613b3181613af5565b9050919050565b7f43616e2774206d696e74206d6f7265207468616e206d6178206c696d69740000600082015250565b6000613b6e601e83612fd7565b9150613b7982613b38565b602082019050919050565b60006020820190508181036000830152613b9d81613b61565b9050919050565b7f4e487b7100000000000000000000000000000000000000000000000000000000600052602260045260246000fd5b60006002820490506001821680613beb57607f821691505b602082108103613bfe57613bfd613ba4565b5b50919050565b7f5075626c6963204d696e7420656e646564206f72206e6f742073746172746564600082015250565b6000613c3a602083612fd7565b9150613c4582613c04565b602082019050919050565b60006020820190508181036000830152613c6981613c2d565b9050919050565b7f4e487b7100000000000000000000000000000000000000000000000000000000600052603260045260246000fd5b6000613caa82612f69565b91507fffffffffffffffffffffffffffffffffffffffffffffffffffffffffffffffff8203613cdc57613cdb613995565b5b600182019050919050565b60008190508160005260206000209050919050565b60006020601f8301049050919050565b600082821b905092915050565b600060088302613d497fffffffffffffffffffffffffffffffffffffffffffffffffffffffffffffffff82613d0c565b613d538683613d0c565b95508019841693508086168417925050509392505050565b6000819050919050565b6000613d90613d8b613d8684612f69565b613d6b565b612f69565b9050919050565b6000819050919050565b613daa83613d75565b613dbe613db682613d97565b848454613d19565b825550505050565b600090565b613dd3613dc6565b613dde818484613da1565b505050565b5b81811015613e0257613df7600082613dcb565b600181019050613de4565b5050565b601f821115613e4757613e1881613ce7565b613e2184613cfc565b81016020851015613e30578190505b613e44613e3c85613cfc565b830182613de3565b50505b505050565b600082821c905092915050565b6000613e6a60001984600802613e4c565b1980831691505092915050565b6000613e838383613e59565b9150826002028217905092915050565b613e9c82612fcc565b67ffffffffffffffff811115613eb557613eb4613221565b5b613ebf8254613bd3565b613eca828285613e06565b600060209050601f831160018114613efd5760008415613eeb578287015190505b613ef58582613e77565b865550613f5d565b601f198416613f0b86613ce7565b60005b82811015613f3357848901518255600182019150602085019450602081019050613f0e565b86831015613f505784890151613f4c601f891682613e59565b8355505b6001600288020188555050505b505050505050565b600081905092915050565b6000613f7b82612fcc565b613f858185613f65565b9350613f95818560208601612fe8565b80840191505092915050565b60008154613fae81613bd3565b613fb88186613f65565b94506001821660008114613fd35760018114613fe85761401b565b60ff198316865281151582028601935061401b565b613ff185613ce7565b60005b8381101561401357815481890152600182019150602081019050613ff4565b838801955050505b50505092915050565b60006140308286613f70565b915061403c8285613f70565b91506140488284613fa1565b9150819050949350505050565b7f4f776e61626c653a206e6577206f776e657220697320746865207a65726f206160008201527f6464726573730000000000000000000000000000000000000000000000000000602082015250565b60006140b1602683612fd7565b91506140bc82614055565b604082019050919050565b600060208201905081810360008301526140e0816140a4565b9050919050565b60006140f282612f69565b91506140fd83612f69565b925082820390508181111561411557614114613995565b5b92915050565b7f4f776e61626c653a2063616c6c6572206973206e6f7420746865206f776e6572600082015250565b6000614151602083612fd7565b915061415c8261411b565b602082019050919050565b6000602082019050818103600083015261418081614144565b9050919050565b600081519050919050565b600082825260208201905092915050565b60006141ae82614187565b6141b88185614192565b93506141c8818560208601612fe8565b6141d181613012565b840191505092915050565b60006080820190506141f160008301876130b0565b6141fe60208301866130b0565b61420b6040830185613146565b818103606083015261421d81846141a3565b905095945050505050565b60008151905061423781612eda565b92915050565b60006020828403121561425357614252612ea4565b5b600061426184828501614228565b9150509291505056fea264697066735822122098c8cab9c08baf292d178e3c8bbfb70662cc30cd048d62cb8b3e35aa72a3cf6e64736f6c63430008110033",
  "linkReferences": {},
  "deployedLinkReferences": {}
}